:020000040800F2
:10000000A0B70220C1010008BD2200088915000820
:10001000D118000823030008DD24000800000000B8
:10002000000000000000000000000000A523000800
:100030005D030008000000006D230008A7230008EE
:10004000DB010008DB010008DB010008DB01000820
:10005000DB010008DB0100085F030008DB0100088A
:10006000DB010008DB010008DB010008DB01000800
:10007000DB010008DB010008DB010008DB010008F0
:10008000DB010008DB010008DB010008DB010008E0
:10009000DB010008DB010008DB010008DB010008D0
:1000A000DB010008DB010008DB010008DB010008C0
:1000B000DB010008DB010008DB010008DB010008B0
:1000C000DB010008DB010008DB010008DB010008A0
:1000D000DB010008DB010008DB010008DB01000890
:1000E000DB010008DB010008DB010008DB01000880
:1000F000DB010008DB010008DB010008DB01000870
:10010000DB010008DB010008DB010008DB0100085F
:10011000DB010008DB010008DB010008DB0100084F
:10012000DB010008DB010008DB010008DB0100083F
:10013000DB010008DB010008DB010008DB0100082F
:10014000DB010008DB010008DB010008DB0100081F
:10015000DB010008DB010008DB010008DB0100080F
:10016000DB010008DB010008DB010008DB010008FF
:10017000DB010008DB010008DB01000800000000D3
:10018000DB010008DB010008DB010008DB010008DF
:10019000DB010008DB010008DB010008DB010008CF
:1001A000DB010008DB010008DB010008DFF80CD0F0
:1001B00000F07AF800480047B9280008A0B70220EC
:1001C0000648804706480047FEE7FEE7FEE7FEE7F1
:1001D000FEE7FEE7FEE7FEE7FEE7FEE7892400080C
:1001E000AD0100082DE9F05F0546002092469B46D0
:1001F00088460646814640241BE02846414647463D
:10020000224600F041F853465A46C01A914110D395
:1002100011461846224600F028F82D1A67EB01080F
:100220004F4622460120002100F01FF817EB00097D
:100230004E41201EA4F10104DFDC484631462A4627
:100240004346BDE8F09FD2B201E000F8012B491E01
:10025000FBD270470022F6E710B513460A46044663
:100260001946FFF7F0FF204610BD202A04DB203A94
:1002700000FA02F1002070479140C2F1200320FAF9
:1002800003F3194390407047202A04DB203A21FAF7
:1002900002F00021704721FA02F3D040C2F120029F
:1002A0009140084319467047064C074D06E0E06848
:1002B00040F0010394E8070098471034AC42F6D3AD
:1002C000FFF778FF702B0D08902B0D0870B58C1878
:1002D00010F8015B15F0070301D110F8013B2A115A
:1002E00006D110F8012B03E010F8016B01F8016B47
:1002F0005B1EF9D12B0705D40023521E0DD401F843
:10030000013BFAE710F8013BCB1A921C03E013F80B
:10031000015B01F8015B521EF9D5A142D8D3002040
:1003200070BDFEE770B500240B4E25460121304616
:1003300000F040FD18B1641CE4B2002505E06D1C1E
:10034000EDB2032D01D9002070BD1E2002F078FA15
:10035000642CEBD3012070BD0000024070470120E7
:1003600000F036BC102A10D0D0F82C20D1E90023A0
:1003700042EA03220B89097B4FEA034343EA016106
:1003800042EA010203D1C26002E0C268EEE7C26243
:100390004FF0000070470000102A10D0D0F828203D
:1003A000D1E9002342EA03220B89097B4FEA034388
:1003B00043EA016142EA010203D1826002E08268FD
:1003C000EEE782624FF000007047000030B50A6827
:1003D000102A1AD0026A104B02EA0302D1E9013452
:1003E00043EA0403D1E9034544EA050443EA04036C
:1003F0004C69896943EA442343EA413141EA0201F5
:1004000041F0080103D1016002E00268E3E7016204
:100410004FF0000030BD00008101F0FF38B5044608
:10042000094D4FF0AA300090A879042360436A4632
:10043000002101F033FFA879042360436A460021BC
:10044000401C01F02BFF38BD40AF02202DE9FC47D6
:10045000254C89460746002600250DF1040810E0CA
:10046000CDF80080618878438B084A46002101F06E
:10047000A3FD6088BDF80410B1EB900F04D16D1C92
:10048000ADB2A079A842EBD8A079A84202D1002051
:10049000BDE8FC87384601F0ADFB20B1314613A022
:1004A00002F01EF815E0B9F1FF3F12D000200AE07B
:1004B000628807FB010093080022114601F0C0FE8C
:1004C000BDF80400401CADF80400A17980B281425F
:1004D000EED8761CB6B2032EBED3394609A001F081
:1004E000FFFF0120D4E7000040AF02206572726F69
:1004F0007220657261736520626C6F636B3A25646C
:100500000D0A000062616420626C6F636B20636897
:1005100065636B65643A25640D0A000038B50446CE
:10052000104D00208DF80000A879012360436A4631
:10053000002101F075FD9DF80000FF2801D0022088
:1005400038BDA879012360436A460021401C01F0B0
:1005500067FD9DF80000FF2801D0012038BD002074
:1005600038BD000040AF02202DE9FF4F014635485D
:1005700093469946827981B0B1FBF2F3B1FBF2F672
:1005800002FB13178046304600F0C2F8B8F80A1094
:100590000546A94203D2012005B0BDE8F08F002432
:1005A0002EE0BC421CD3B9F1000F19D0B8F80220DC
:1005B0000299511A494501D289B201E01FFA89F125
:1005C0008A46009105FB004106FB00405B46029A0B
:1005D00001F080F90021D344A9EB0A09029105E05A
:1005E00005FB004106FB004001F056FA30B12846F9
:1005F000FFF714FF012000F027F8C4E7641CA4B241
:1006000098F806004146A042CBD8C0B20F46A0429F
:1006100015D1284600F02EFA304601F0EBFA002002
:100620007A89796909E000BF31F81030B34202D10C
:1006300021F8105003E0401C80B28242F4D8002020
:10064000AAE7000040AF0220F8B506460020294C7A
:100650004FF6FF7203E0616921F81020401C6189A8
:100660008142F8D80020A08105461CE0A07904232F
:1006700068436A46002101F0D3FC9DF80000FF2882
:100680000CD1B6B1A079012368436A460021401C11
:1006900001F0C6FC9DF80000FF280AD0294616A0EC
:1006A00001F01EFF6D1C6189A942DFD8002062693C
:1006B00017E09DF802009DF8031000EB012061890E
:1006C000814202D9616921F81050A089401CA081A3
:1006D000E8E700BF32F810308B4201D3E08102E03E
:1006E000401C8142F6D8E089642801D20220F8BD7E
:1006F0000020F8BD40AF022062616420626C6F632D
:100700006B20696E6465783A25640D0A000000006C
:1007100070B5104E104C71892268491E914200D26A
:10072000216000F001052946206800F017F8411CFF
:100730000AD170892168401E884207D92946206065
:1007400000F00CF8411C01D0206070BD4FF0FF306C
:1007500070BD000040AF0220EC040020F8B50D464B
:100760000021401C0091040013D00C4F012600BF53
:1007700026EA0400A8420AD1B879611E484304233E
:100780006A46002101F04CFC0098401C04D0641E15
:10079000EED14FF0FF30F8BD601EF8BD40AF022033
:1007A000F8B5254C00263546A68113E02846FFF70C
:1007B000B5FE70B9284601F01DFA38B129461FA0D0
:1007C00001F08EFE2846FFF729FE02E0A089401CBA
:1007D000A0816D1C6089A842E8D8A1891BA001F006
:1007E0007FFEA089642801D20120F8BDC0EB401033
:1007F00000EB40016420B1FBF0F70025009610E00B
:100800002846FFF78BFE58B9A079022368436A4651
:10081000194601F043FD0098401C0090B84203D0F7
:100820006D1C6089A842EBD80120FFF70DFF00285E
:10083000DBD00220F8BD000040AF022042616420FE
:10084000626C6F636B3A25640D0A0000676F6F641A
:100850005F626C6F636B6E756D3A25640D0A000004
:1008600010B501F0F3F900BB184C616911B100201B
:1008700002F030F960894100002002F037F9606130
:1008800061894900FFF7E6FC606970B10120FFF75C
:10089000DBFE60B10EA001F023FEFFF781FF90B1F7
:1008A00011A001F01DFE022010BD012010BD6189C4
:1008B00012A001F015FEA18916A001F011FEE18938
:1008C00019A001F00DFE002010BD000040AF022075
:1008D000666F726D6174206E616E6420666C617308
:1008E000682E2E2E0D0A0000666F726D61742066F0
:1008F00061696C6564210D0A00000000746F746109
:100900006C20626C6F636B206E756D3A25640D0A06
:1009100000000000676F6F6420626C6F636B206E75
:10092000756D3A25640D0A0076616C696420626C0D
:100930006F636B206E756D3A25640D0A0000000030
:100940000549CA89824202D24FF6FF707047496951
:1009500031F810007047000040AF02202DE9FF4F32
:1009600081B01F4616468A460024DFF804917BE0DA
:10097000B9F8020099F80610B0FBF6F048430AEB0C
:100980000405B5FBF0F04B46FFF7DAFF59898142C9
:1009900003D8012005B0BDE8F08F59889946B1FB16
:1009A000F6FC9B790CFB03FCB5FBFCF20CFB125232
:1009B0007243B2FBF1F500FB035BB2FBF1F001FB0C
:1009C0001028A1EB0800B0FBF6F085B2381BA84256
:1009D00000D285B205FB06F083B200901FFA88F1C1
:1009E0005846019A01F0C8F9032809D100981FFA66
:1009F00088F183B25846019A01F0BEF9032804D069
:100A000004282CD058B30220C4E7DDE900321FFAD5
:100A100088F15846FFF7A8FD99F80610BBFBF1F0E6
:100A20004FF0FF31FFF712FD80B999F80610BBFBBC
:100A3000F1F00021FFF70AFD99F806108046BBFB94
:100A4000F1F001F0D7F8B8F1000F08D099F80610CE
:100A5000BBFBF1F0FFF7E2FC0120FFF7F5FD019889
:100A60002C4406FB05000190BC4281D3002091E795
:100A700040AF022008B5CC218DF8001004490123B5
:100A80006A4689794843194601F008FC08BD000010
:100A900040AF02202DE9FF4F85B00025681E984623
:100AA000164603907CE0404B58889979B0FBF6F0ED
:100AB000484306994C19B4FBF0F0FFF741FF074695
:100AC0005889B84203D8012009B0BDE8F08F364AF2
:100AD00050889279B0FBF6F15143B4FBF1F301FB7E
:100AE000134101FB06FBBBFBF0F107FB0211BBFB53
:100AF000F0F200FB12B9A0EB090080B2B0FBF6F0F7
:100B00000291A8EB05018CB2ADF804000491844277
:100B100000D3044601A804FB06FA00901FFA89F1ED
:100B2000CAF38F034FF0FF32029801F045FA08B183
:100B30000220C9E7BDF80410B1EB9A0F10D11FFADB
:100B40008AF31FFA89F1059A029801F0C9FA38B9B7
:100B50000398B84220D03846FFF78CFF0397D8B1EE
:100B60001148817940884143A1EB0B00B0FBF6F0BE
:100B7000049980B28CB2ADF80400844200D30446DC
:100B800004FB06FA1FFA89F15346059A0298FFF70B
:100B9000EBFC08B1032097E70598254450440590E5
:100BA000454580D300208FE740AF022010B50128D3
:100BB0000DD1FFF7B7FB002809D001F06AFE01F064
:100BC0008EFB01F0ABFFBDE8104001F0EFBB10BDA4
:100BD000044910B50A68024202D00860FFF7E6FF38
:100BE00010BD0000143C01402DE9F84FDFF890B132
:100BF00000224FF001084FF0030A4FF00F090BF1EC
:100C0000040E00BF0B6808FA02F42340A3426ED121
:100C10004D68022D01D0122D0ED1D50800EB850CA8
:100C2000DCF820505607F70E09FA07F6B5430E69AF
:100C3000BE402E43CCF82060066855000F790AFAB2
:100C400005FC07F0030726EA0C06AF4037430760B0
:100C50004E68012E05D0022E03D0112E01D0122E87
:100C60000ED18768CE6827EA0C07AE403E43866007
:100C70004668A6430C79C4F300149440344344609E
:100C8000C4688E6824EA0C04AE402643C6604C68F3
:100C9000E4006FD53B4C256845F480452560246809
:100CA00022F0030504F480440094374C2E19D6F842
:100CB000084895072F0F09FA07F5AC43334DA842B2
:100CC00001D100252EE0324DA84201D1012529E0B5
:100CD000304DA84201D1022524E02F4DA84201D178
:100CE00003251FE02D4DA84202D104251AE041E062
:100CF0002B4DA84201D1052514E02A4DA84201D16F
:100D000006250FE0284DA84201D107250AE0274D0E
:100D1000A84201D1082505E0254DA84201D10925A9
:100D200000E00A25BD402543C6F80858DBF800401E
:100D30005D464E689C43F60300D51C432C60DEF8EC
:100D4000004075464E689C43B60300D51C432C609A
:100D50000B4D08352C684E689C43F60200D51C43A9
:100D60002C60074D0C352C684E689C43B60200D5AC
:100D70001C432C60521C102AFFF444AFBDE8F88FCE
:100D8000003C014044380240003001400000024075
:100D90000004024000080240000C02400010024023
:100DA0000014024000180240001C024000200240D3
:100DB000002402400069084000D0012070470AB1B9
:100DC000816170470904FBE70148806870470000B3
:100DD000B4040020024881680278114481607047A1
:100DE000B40400200B4810B5016841F400710160A3
:100DF000016841F480610160016841F48071016023
:100E0000032000F0E1F8002000F006F800F024F8DC
:100E1000002010BD003C024070B50D4D04464FF45B
:100E20007A712878B1FBF0F00A490968B1FBF0F05B
:100E300000F096FB48B9102C07D200222146501E24
:100E400000F0A2F800206C6070BD012070BD0000B1
:100E5000B4040020C00400200A4808B5016841F429
:100E600080410160006800F4804000900548001F48
:100E7000016841F080510160006800F080500090EE
:100E800008BD00004438024070B515460E46040007
:100E900003D094F8210010B107E0012070BD0020BC
:100EA00084F82000204600F021F8211D2068FFF77B
:100EB0008DFAD4E900023146FFF76EFAD4E9000258
:100EC0002946FFF74FFA60681028206808D0016AA9
:100ED00041F004010162012084F82100002070BD6E
:100EE000016841F004010160F5E7000070B5234896
:100EF00086B00024016841F001010160006800F043
:100F0000010005901D480838016841F008010160A2
:100F1000016801F008010591016841F010010160CC
:100F20000068032500F0100005904020CDE9000482
:100F30000120CDE90205124E69463046FFF754FE06
:100F40008020009001A9022081E831000C2004904B
:100F500069463046FFF748FE4DF63300009069467B
:100F600002943046FFF740FE4FF4F060009069466F
:100F70000448FFF739FE06B070BD00003838024063
:100F8000000C024000100240F0B40E4B1B680C46EF
:100F9000C3F30223C3F10705042D00D90425191D4D
:100FA000072901D2002300E0DB1E012606FA05F125
:100FB000491E214099409E40761E16403143F0BCA8
:100FC00001F07DB90CED00E0064900F00702086869
:100FD0004FF6FF03184040EA0220034A104308601E
:100FE000704700000CED00E00000FA052DE9F84321
:100FF0001748016841F0805101600068154F00F00A
:101000008050012600903E64FFF7DEFE05464FF457
:101010007A78114C05E000BFFFF7D6FE401B404533
:101020000DD86068C003F7D57E64FFF7CDFE054696
:10103000464607E0FFF7C8FE401BB04202D9032036
:10104000BDE8F88360688003F4D50020F8E700006D
:101050004038024000000E4200700040014901206B
:101060000862704700000E4202494A6802434A6023
:1010700070470000007000400548016841F002011F
:1010800001600448016841F00401016030BF70470D
:101090000070004010ED00E02DE9F0470E4605001D
:1010A00065D0DFF81481D8F80000F7B200F00F0027
:1010B000B04207D288F80070D8F8000000F00F00A6
:1010C000B04254D128683D4C810712D5400703D562
:1010D000206840F4E05020602878000703D520689D
:1010E00040F4604020602068A96820F0F0000843C8
:1010F00020602878C0072DD0304968680839012859
:1011000012D0022813D0032811D0096889070029BA
:101110002DDA216821F0030101432160FFF754FE1D
:10112000814641F2883A0EE009688903EFE70968D1
:101130008901ECE7FFF748FEA0EB0901514502D910
:101140000320BDE8F0872068696800F00C00B0EB70
:10115000810FEFD1D8F80010404601F00F01B142E5
:1011600007D90770006800F00F00B04201D00120DD
:10117000E7E72878400705D52068E96820F4E050C3
:10118000084320602878000706D52068296920F4E4
:10119000604040EAC100206000F016F82168084A6B
:1011A000C1F30311515CC840064908600020FFF7F5
:1011B00033FE0020C5E70000003C02400838024032
:1011C0003C2B0D08C0040020154810B5006810F035
:1011D0000C02144813D01449042A0FD0082A0ED147
:1011E0000F4C241F2268236802F03F025B0207D5E0
:1011F0002068C0F38810A0FB010106E0084610BD7E
:101200002168C1F38811A1FB00010023FEF7EAFF6A
:101210002168C1F30141491C4900B0FBF1F010BD48
:10122000083802400024F40040787D012DE9F84F91
:10123000050076D02878DFF8F8B2BE4CC00749D058
:10124000DBF800105846C1F38101012908D000687D
:10125000C0F3810002280AD1201D0068400206D593
:101260002068800336D568680028E2D032E06868DC
:10127000B0F5803F10D0B0F5A02F206810D020F43A
:1012800080302060206820F4802020606868A0B151
:10129000FFF79AFD06460CE0206840F48030F4E742
:1012A00040F480202060F7E7FFF78EFD801B642864
:1012B00073D820688003F7D50CE0FFF785FD06465C
:1012C00005E000BFFFF780FD801B6428F0D8206890
:1012D0008003F7D42878DFF8608280074FF0000998
:1012E0003ED5DBF80010584611F00C0F09D000680D
:1012F000C0F3810002280BD18D48001F0068400216
:1013000006D42068800715D5E868012809D111E0C6
:10131000E868B8B10120C8F80000FFF755FD06469F
:1013200005E002E1FFF750FD801B0228C0D82068CD
:101330008007F7D52068296920F0F80040EAC1004D
:1013400020600DE0C8F80090FFF73EFD064604E07F
:10135000FFF73AFD801B02281FD820688007F7D4CA
:101360002878000722D5724E744869696C3671B1CD
:1013700001210160FFF728FD074604E0FFF724FD87
:10138000C01B022809D830688007F7D50EE0C0F8E6
:101390000090FFF719FD074605E083E0FFF714FD15
:1013A000C01B02287ED830688007F7D42878400711
:1013B00068D5DFF87CA100270AF1380ADAF80000C6
:1013C000C0000BD4DAF8001041F08051CAF80010C8
:1013D000DAF80000012700F080500090584E306885
:1013E000C00510D4306840F480703060FFF7ECFC2A
:1013F000009005E0FFF7E8FC0099401A022851D858
:101400003068C005F6D54A4EA868683601280FD066
:101410000528306810D020F001003060306820F0DE
:1014200004003060A868B8B1FFF7CEFC00900FE070
:10143000306840F00100F4E740F004003060F7E766
:10144000FFF7C2FC0099411A41F28830814264D80A
:1014500030688007F4D50EE0FFF7B6FC009007E097
:10146000FFF7B2FC0099411A41F28830814254D80A
:1014700030688007F4D42FB1DAF8001021F08051E1
:10148000CAF80010A869C0B3DBF80010C1F38101ED
:1014900002294AD00228484607D0C8F86000FFF762
:1014A00093FC00E039E005463AE04746C8F86000A2
:1014B000FFF78AFC064604E0FFF786FC801B022843
:1014C0002BD820688001F7D4D5E907010843A96A21
:1014D0001C4A490802EB01416A6A41EA8211084349
:1014E00095F82C1040EA01611148001F01600120AD
:1014F0003866FFF769FC054605E014E0FFF764FC79
:10150000401B022809D820688001F7D50BE000BFF6
:10151000FFF75AFC401B022802D90320BDE8F88FD0
:1015200020688001F4D40020F8E70120F6E70000ED
:10153000083802400038024000004742800E47420F
:10154000007000400000FFFF4FF0E0210428086910
:1015500003D020F004000861704740F00400FAE76F
:1015600010B5401EB0F1807F01D3012010BD4FF0B7
:10157000E02460610F21601700F0A1FE0020A0614F
:1015800007202061002010BDFEE700002DE9F0419A
:1015900086B014216846FEF75DFE1B48016841F0E5
:1015A00008010160016801F008010591016841F03E
:1015B000040101600068154F00F004004FF400546E
:1015C0000590002221463846FFF7F9FBDFF84080FE
:1015D0004FF47076002231464046FFF7F0FB00944E
:1015E00001240225CDE90145694638460394FFF7F9
:1015F000FBFA0096CDE90145694640460394FFF7A2
:10160000F3FA06B0BDE8F08130380240000C024029
:101610000008024010B5FFF7B9FF00F003F91120F0
:1016200000F046F9002000F029F9CF2000F040F941
:10163000002000F023F9C12000F020F9302000F054
:101640001DF9ED2000F034F9642000F017F90320B3
:1016500000F014F9122000F011F9812000F00EF9C9
:10166000E82000F025F9852000F008F9112000F0AD
:1016700005F9782000F002F9F62000F019F90120B0
:1016800000F0FCF8302000F0F9F8002000F0F6F847
:10169000CB2000F00DF9392000F0F0F82C2000F0FC
:1016A000EDF8002000F0EAF8342000F0E7F805201B
:1016B00000F0E4F8F72000F0FBF8202000F0DEF85E
:1016C000EA2000F0F5F8002000F0D8F8002000F043
:1016D000D5F8C02000F0ECF8202000F0CFF8C120B1
:1016E00000F0E6F8112000F0C9F8C52000F0E0F89D
:1016F000312000F0C3F83C2000F0C0F8C72000F013
:10170000D7F8A92000F0BAF83A2000F0D1F8552017
:1017100000F0B4F8362000F0CBF8482000F0AEF826
:10172000B12000F0C5F8002000F0A8F8182000F063
:10173000A5F8B42000F0BCF8002000F09FF80020CD
:1017400000F09CF8F22000F0B3F8002000F096F8CA
:10175000262000F0ADF8012000F090F8E02000F025
:10176000A7F80F2000F08AF8172000F087F814205F
:1017700000F084F8092000F081F80C2000F07EF8D9
:10178000062000F07BF8432000F078F8752000F088
:1017900075F8362000F072F8082000F06FF813207A
:1017A00000F06CF8052000F069F8102000F066F8F1
:1017B0000B2000F063F8082000F060F8E12000F052
:1017C00077F8002000F05AF81F2000F057F8232087
:1017D00000F054F8032000F051F80E2000F04EF80D
:1017E000042000F04BF8392000F048F8252000F0E4
:1017F00045F84D2000F042F8062000F03FF80D209B
:1018000000F03CF80B2000F039F8332000F036F8F7
:10181000372000F033F80F2000F030F8BDE810401A
:1018200001F037B810B5FFF7B1FE084C0020C4F83E
:10183000B402642004F52D7401F002F80120206048
:10184000BDE81040322000F0FBBF000000804142A4
:1018500030B505460C462A2000F02AF8AD1CA8B287
:1018600000F01CF82B2000F023F8641CA0B200F05C
:1018700015F8BDE830402C2000F01AB830B5064C01
:101880000021C4F8A0120125C4F8A45204F528745C
:1018900000F06EFD256030BD0000414210B50446E9
:1018A000000AFFF7EBFFE0B2BDE81040FFF7E6BF2C
:1018B00010B5064C0021C4F8A012C4F8A41204F517
:1018C000287400F055FD0120206010BD0000414249
:1018D000FEE700002DE9F84F1C4600230A9F16463C
:1018E0000D46ADF80030DFF8A4A19AF80620B0FB51
:1018F000F2F1B5FBF2F2C907B1EBC27F7DD1DFF89F
:101900009091984689F80080DFF888B18BF80080C4
:101910008BF800808BF80000020A8BF80020000C86
:101920008BF80000352089F80000002000F0BEFB95
:1019300020B9012000F0BAFB010002D00220BDE86E
:10194000F88F85204A4689F80000D9468BF8006058
:10195000330A8BF800308BF800502B0A8BF80030DC
:101960002B0C8BF800301E2000F0D8F8F8054FF053
:10197000100B4FF0E0430ED0404605E014F8010B89
:101980001870BDF80000401CADF80000BDF8000064
:10199000B842F3D36CE07F0A750AD6464FF0204078
:1019A00046469A4630E000BFD0F8803043F040030E
:1019B000C0F88030ADF800604FF40078D44608E0FD
:1019C00014F8013B8CF80030BDF800305B1CADF81A
:1019D0000030BDF800304345F2D300BFD0F884306A
:1019E0005B06FBD5D0F894C001EB05080EEB88032D
:1019F000C3F81CC0D0F8803000E042E023F0400380
:101A0000C0F88030491CC9B2B942CDD3BEF802300B
:101A10000BEB850018447146ADF800001E2000F065
:101A20007DF885201070BDF8003089F80030BDF8D1
:101A300000301B0A89F800301E2000F06FF801EB1F
:101A40008500ADF8006053461C300DE05FF00001EA
:101A500010F8014B1C70491CC9B20429F8D3BDF819
:101A60000010491CADF80010BDF80010B942EDD3CC
:101A700082F800B0C82000F0F1FE00F003FB40281F
:101A800001D001205BE7002059E7000040AF0220B1
:101A900000000170000002702DE9F0410E461C4963
:101AA0008A79B0FBF2F1B6FBF2F2C907B1EBC27F63
:101AB00029D1184F00253D70174C257025702070D6
:101AC000010A2170000C207035203870284600F083
:101AD000EDFA18B9012000F0E9FA10B10220BDE8D2
:101AE000F08185203870257025702670300A2070AE
:101AF000300C207010203870C82000F0AFFE00F0CD
:101B0000C1FA402801D00120E9E70020E7E7000002
:101B100040AF0220000001700000027001B5009883
:101B200001E0401E00900028FBD108BD2DE9F041E6
:101B3000064690460D46012000F044F8044629462A
:101B4000002000F03FF807464146012000F03AF837
:101B500005464146002000F035F8014684EA0700BA
:101B600068404840A0F57061FF3905D00AA000F038
:101B7000B7FC0120BDE8F0816C4021460DA000F0CB
:101B8000AFFCE00804F00703315C01229A405140A9
:101B900031540020EEE7000032626974206563630F
:101BA000206572726F72206F72206D6F72650D0A00
:101BB000000000006572726F72706F733A25640DD9
:101BC0000A00000030B50346002002465FF0010421
:101BD00002F001059D4208D121FA02F5ED0704D07B
:101BE000550804FA05F5284480B2521CD2B2182ACE
:101BF000EED330BD104910B50969104A914201D1A8
:101C0000C00103E00E4A914200D180010D4A6021DB
:101C100011700D490870030A0B70000C0870D02079
:101C20001070042000F00CFE00F02CFA402801D0C7
:101C3000012010BD002010BD40AF022089260048C1
:101C4000569590DC000001700000027010B5274826
:101C500088B02549016010214160002181604FF466
:101C6000C022C160C0E9041281610121C16102206A
:101C70000322CDE90002CDE90402CDE90201CDE95C
:101C8000060104AA69461948FFF7FEF800F0ECF9CE
:101C9000642000F0D5FD00F049F8144C4034206178
:101CA000042000F029F8124B4FF4805122694810AB
:101CB0009A4207D14FF4875222806180E022A280AD
:101CC000802208E00B4B9A420BD14FF40462228031
:101CD00060804022A280A27120816181002008B032
:101CE00010BD0120FBE70000600000A000AF022053
:101CF00089260048569590DC0A4A00B5EF211170FC
:101D0000094A012111704FF0E0410870002008706D
:101D10000870087000F0B6F9402801D0012000BD1D
:101D2000002000BD00000170000002700CB51049D9
:101D3000902008700F49002008704FF0E0400178B3
:101D40008DF8001001788DF8011001788DF80210DF
:101D500001788DF8031000788DF80400DDF801009B
:101D60009DF8041000BA20F0FF0008430CBD0000ED
:101D700000000170000002702DE9FC5F4FF0000BC5
:101D80001C4615460E468146ADF800B07549DA4648
:101D900081F800B074480670320A027080F8009032
:101DA0004FEA192202704FEA19420270302008707F
:101DB000002000F07BF918B9012000F077F910B18C
:101DC0000220BDE8FC9FE1054FF0E0420ED05846EE
:101DD00005E0107805F8010BBDF80000401CADF8D7
:101DE0000000BDF80000A042F3D3B3E0670A740A14
:101DF0004FF02041DFF874814FF400739346019552
:101E00002AE000BFD1F8802042F04002C1F88020D3
:101E1000002206E09BF8002005F8012BBDF8002009
:101E2000521CADF80020BDF800209A42F2D300BF4A
:101E3000D1F884205206FBD5D1F8942000EB040C95
:101E400008EB8C0CCCF81C20D1F8802022F040024A
:101E5000C1F88020401CC0B2B842D3D3B8F8020009
:101E6000102101EB84010844ADF800002320FFF7A6
:101E700055FE3C4805210170BDF800203A490A7022
:101E8000BDF80020120A0A70E02101701920FFF746
:101E900045FE002108EB8400ADF800105A463C30A6
:101EA00007E0137800F8013BBDF800305B1CADF88B
:101EB0000030BDF80030B3EB870FF2D3ADF800105F
:101EC00044E000BFBDF80000BDF80010204408EB5E
:101ED0008000C06B214408EB8101C969884230D081
:101EE000BDF80000204408EB8000C26BBDF8000084
:101EF000204408EB8000C1691DA000F0F1FA2246E1
:101F0000394621A000F0ECFA3246494624A000F000
:101F1000E7FABDF80000204408EB8000C269BDF874
:101F20000000BDF80030204408EB8000C16B019830
:101F300000EB4320FFF7FAFD08B1042000E0032086
:101F40008246BDF80000401CADF80000BDF800005E
:101F5000B842B7D300F096F8402801D04FF0010AFC
:101F600050462EE7000001700000027040AF0220D2
:101F70006572722068642C72643A307825782C304F
:101F80007825780D0A0000006563636E756D2C6519
:101F9000636373746172743A25642C25640D0A00BE
:101FA000506167654E756D2C436F6C4E756D3A25AB
:101FB000642C25640D0A0000F0B51D46164B002464
:101FC000059F16461C70154A1170090A1170107091
:101FD000010A1170000C107030201870204600F0BB
:101FE00065F818B9012000F061F808B10220F0BDD1
:101FF0004FF0E04004E00168B14203D1641CA4B298
:10200000AC42F8D33C8000F03DF8402801D00120DC
:10201000F0BD0020F0BD0000000001700000027063
:1020200030B4064D2C79641AE4B2A34200D9234699
:102030006C88214430BC89B2FFF79EBE40AF0220BD
:1020400008B500208DF8000006497020087019209E
:10205000FFF764FD4FF0E04000788DF800009DF838
:10206000000008BD00000170054900B5FF200870A0
:1020700000F008F8402801D0012000BD002000BD7C
:102080000000017008B500206FF06042CDF800003C
:10209000FFF7D6FF400606D40098401C00909042FF
:1020A000F6D3022008BD402008BD000001B581B074
:1020B0000020009009486FF07E41009A521C009267
:1020C000D0F818229DF804309A4201D100200CBDAE
:1020D000009A8A42F1D301200CBD000000804142E9
:1020E0002DE9F84F00261D46ADF80060514F8023C2
:1020F00034463B70DFF840A18AF800104FEA112CFB
:102100008AF800C08AF800004FEA102C8AF800C054
:10211000000C8AF800001E20FFF700FDE8054FF0D4
:10212000E04811D0ADF8006009E000BF12F8010BE3
:1021300088F80000BDF80000401CADF80000BDF8B4
:102140000000A842F2D366E06D0A490A4FF0204031
:10215000DFF8E890B3464FF4007C29E0D0F88030F7
:1021600043F04003C0F88030ADF800B0664608E0A8
:1021700012F8013B88F80030BDF800305B1CADF868
:102180000030BDF80030B342F2D300BFD0F8843045
:102190005B06FBD5D0F89430661809EB8606F36130
:1021A000D0F8803023F04003C0F88030641CE4B2E3
:1021B000AC42D3D3B9F80220102000EB81001044C8
:1021C000ADF800001E20FFF7A9FC85203870BDF88F
:1021D00000208AF80020BDF80020120A8AF80020AA
:1021E0001E20FFF79BFC09EB8100ADF800B01C300E
:1021F0000DE0002110F8012B88F80020491CC9B21D
:102200000429F7D3BDF80010491CADF80010BDF843
:102210000010A942EDD310203870C82000F01EFB3A
:10222000FFF730FF402802D00120BDE8F88F0020E2
:10223000FBE70000000001700000027040AF0220C8
:102240002DE9F041134F1E46002480233B70124DB0
:102250002970090A29702870010A2970000C287059
:102260001E20FFF75BFC4FF0E04002E00260641CC0
:10227000A4B2B442FAD310203870C82000F0EEFAAD
:10228000FFF700FF402802D00120BDE8F0810020C8
:10229000FBE70000000001700000027030B4064D42
:1022A0002C79641AE4B2A34200D923466C882144F5
:1022B00030BC89B2FFF714BF40AF02207047090756
:1022C000090E002806DA00F00F0000F1E02080F887
:1022D000141D704700F1E02080F80014704710B51D
:1022E00000218D2000F00AF80021102000F006F8EF
:1022F0000021BDE81040AE20AFF300802DE9F0478B
:10230000074618480026012411B1C0F8944201E0A4
:10231000C0F894628046C0F890620A2000F09EFAED
:10232000B146114E00254846C6F8B892390602D586
:10233000C6F8B44201E0C6F8B4020A2000F08EFAF2
:10234000C6F8B8420A2000F089FA78066D1C070E1C
:10235000EDB2082DE7D3C8F89042C8F89442BDE822
:10236000F087000000004242000041427047000038
:1023700030B5082100230A4A0124050602D5C2F817
:102380009C4201E0C2F89C32C2F89832C2F89842EE
:102390004006000E491E11F0FF01EED130BD0000D5
:1023A000000041427047FEF715BD0000114908B515
:1023B0004FF0FF3008600F483030016841F0805125
:1023C000016000680C4900F0805000900120086016
:1023D000FEF744FE0948016841F008010160016808
:1023E00041F0040101608015FEF73EFEBDE80840A3
:1023F000FEF742BE10380240400E474200700040D7
:1024000030B593B030216846FDF724FF14210CA8A5
:10241000FDF720FF1A480025016841F08051016056
:10242000006800F0805011901648016841F4404166
:1024300001600068022400F44040119001200390E4
:102440001020009406940490CDE907504FF4B47026
:10245000CDE9090404200B906846FEF7E7FEFEF77D
:10246000C5FD0CA90F2081E831004FF4A0500F905A
:10247000E002109005210CA8FEF70EFE13B030BD4F
:1024800040380240007000401048016841F470017B
:1024900001600F48016841F0010101600C4A002110
:1024A0000832116002680B4B1A400260031D0A4A91
:1024B0001A60026822F48022026005480C30016034
:1024C00002495806803908607047000088ED00E036
:1024D00000380240FFFFF6FE10300024FEE7000047
:1024E0000FB4054B10B503A9044A029800F018F880
:1024F00010BC5DF814FB000091280008F0040020D7
:1025000002E008C8121F08C1002AFAD170477047BC
:10251000002001E001C1121F002AFBD1704700001A
:102520002DE9FF4F8DB09B460F460446002606E07E
:1025300025280BD05A460F999047641C761C2078AA
:102540000028F5D111B03046BDE8F08F0025A8462F
:102550000122984900E0054314F8013F203B02FAAC
:1025600003F00842F7D120782E2817D114F8010F74
:1025700045F004052A280ED06FF02F022078A0F134
:10258000300109290AD808EB880102EB410100EB70
:102590000108641CF2E757F8048B641C20786C284F
:1025A0000DD004DC4C2812D06A2811D104E0742824
:1025B0000DD07A280CD10AE045F4001507E06178C7
:1025C00045F48015814202D1641C05F58015641C18
:1025D0002278692A45D008DC002AB3D0582A69D06D
:1025E000632A10D0642A08D13BE0702A67D0732A8E
:1025F00013D0752A5CD0782A5CD010465A460F99C1
:102600009047761CD3E017F8040B8DF800000020EB
:102610008DF80100E946012003E057F8049B4FF0D4
:10262000FF3069074FF0000501D40AE06D1C4545F5
:102630000DDA8542FADB19F805100029F6D106E01B
:102640006D1C8542FCDB19F805100029F8D12E44D9
:1026500004E019F8010B5A460F9990476D1EF8D205
:10266000A5E00A200021CDE90801C5F302500228A7
:102670000DD001CFC117031E71F100030DDA4FF029
:10268000000CD0EB0C006CEB01012D2308E0FF1DCA
:1026900027F00707F7E80201EDE72B0504D52B2308
:1026A0008DF8283001233BE0EB0739D02023F7E7F2
:1026B0000A2000E010200021CDE9080107E01020E9
:1026C000002145F00405CDE908014FF00808C5F3E5
:1026D000025002280FD001CF00214FF0000A2B0733
:1026E0001FD5702A0DD0DDE908C38CF0100C5CEA10
:1026F000030C0CD015E0FF1D27F00707F7E80201D7
:10270000EBE740228DF828204FF0010A0BE050EA59
:10271000010306D030238DF828308DF829200223BC
:102720009A46582A04D024A20DF120090B9209E000
:1027300026A2F9E7DDE90823FDF754FD0B9B9B5C1E
:1027400009F8013D50EA0102F4D1ADEB0900203057
:102750000890680701D44FF001080899884502DD08
:10276000A8EB010000E000208046002506E00AA852
:102770005A46405D0F9990476D1C761C5545F6DB17
:1027800004E030205A460F999047761CB8F10001BA
:10279000A8F10108F5DC05E019F8010B5A460F997C
:1027A0009047761C0899481E08900029F4DC641CA8
:1027B000C5E60000092801003031323334353637A0
:1027C000383961626364656600000000303132337D
:1027D000343536373839414243444546000000001D
:1027E00070B586B014216846FDF734FD0D4800250C
:1027F000016841F0040101600068012200F004005A
:10280000094E9402059021463046FEF7D8FA012180
:10281000CDE90041CDE9021569463046FEF7E4F9FD
:1028200006B070BD30380240000C024010B50446BE
:102830000420FEF789FE0148046010BDC404002096
:1028400070B5054600244FF47A7603E0304600F078
:1028500005F8641CAC42F9D370BD000070B54FF0B0
:10286000E024002265690949A36909684843A16910
:102870009942FCD002D2A3EB010302E0A5EB0106D2
:1028800033441A440B468242F1D370BDC404002085
:10289000704700B51020FFF70BF828205DF804EB17
:1028A000FFF706B800B51120FFF702F829205DF800
:1028B00004EBFEF7FDBF0000FEF794FAFFF7A0FD62
:1028C000B420FFF7B3FFFEF7A5FEFFF789FF00F086
:1028D0002DF9FFF7E7FF002000F084F8022000F058
:1028E00081F800BFFDF7BCFF0028FBD1FA240226C7
:1028F000234F350207EB8400A0F5805006EB8411CE
:10290000D0F8180C40232A46FEF7C4F8641CB4F52E
:10291000967FEFD300276420FFF792FF5FF0000659
:1029200006EB871101235A021648891CFEF716F898
:10293000DFF850B0DFF850A05FF0000505EB460966
:102940001FFA89F10020FEF783FF00240BEB052816
:102950000AEB092938F8140008B939F81400FEF711
:102960009DFF641C802CF5D36D1C022DE6D3761CD4
:10297000402ED5D37F1CB7F5967FCCD3CAE7000095
:1029800004000020F40400203CAB0C0870B5134A8E
:10299000131893F8203093B1114B53F820308B4229
:1029A0001AD90F4B0C3B53F82030B1FBF3F102EB7B
:1029B0008003586950F821200020044608E011687F
:1029C0008847012070BD5D690E18401C45F82640FF
:1029D0009042F8DB002070BD022070BDC8040020CA
:1029E000642B0D0830B504460748084D002150F807
:1029F0002400820005EB8400406900F087F8012084
:102A0000291981F8200030BD4C2B0D08C804002086
:102A10002DE9F0411E4E0446002530190F4690F86E
:102A2000200010B93168204688474FF0FF326FB35D
:102A3000184B53F82410B7FBF1F0B7FBF1FC01FB86
:102A40001C7101B1401C13490C3951F82410491E66
:102A50001CD406EB8406776957F821C0BCF1000F3F
:102A600004D0002585420FD1002206E06D1CF9E755
:102A700075698F18521C45F827008242F8D353F825
:102A800024004843BDE8F081491EE5D51046F9E72A
:102A9000C8040020582B0D0810B50C4B0C4C00221C
:102AA00053F82030114604EB800005E0446954F8E7
:102AB000214004B1521C491C8B42F7D84FF47A7064
:102AC0004243B2FBF3F080B210BD00004C2B0D0866
:102AD000C8040020002906D0034A02EB8002926855
:102AE000891AFFF753BF7047C804002010B5044689
:102AF000FFF78EFF411C05D0034901EB8401896873
:102B0000084410BD002010BDC804002002E000BF32
:102B100000F8011B521EFBD27047000001229102F7
:102B20000148FEF74CB90000000C024000224FF4AF
:102B300080610148FEF743B9000C0240000000002C
:102B40000000000000000000000000000000000085
:102B50000000000000000000000000000000000075
:102B60000000000000000000000000000000000065
:102B70000000000000000000000000000000000055
:10E9B0000000000000000000000080A380A3000011
:10E9C0000000000000000000000000000000000047
:10E9D0000000000000000000000000000000000037
:10E9E0000000000000000000000000000000000027
:10E9F0000000000000000000000000000000000017
:10EA00000000000000000000000000000000000006
:10EA100000000000000000000000000000000000F6
:10EA200000000000000000000000000000000000E6
:10EA300000000000000000000000000000000000D6
:10EA400000000000000000000000000000000000C6
:10EA500000000000000000000000000000000000B6
:10EA600000000000000000000000000000000000A6
:10EA70000000000000000000000000000000000096
:10EA80000000000000000000000000000000000086
:10EA90000000000000000000000000000000000076
:10EAA0000000000000000000000000000000000066
:10EAB0000000000000000000836BA0A5A0A5436338
:10EAC0000000000000000000000000000000000046
:10EAD0000000000000000000000000000000000036
:10EAE0000000000000000000000000000000000026
:10EAF0000000000000000000000000000000000016
:10EB00000000000000000000000000000000000005
:10EB100000000000000000000000000000000000F5
:10EB200000000000000000000000000000000000E5
:10EB300000000000000000000000000000000000D5
:10EB400000000000000000000000000000000000C5
:10EB500000000000000000000000000000000000B5
:10EB600000000000000000000000000000000000A5
:10EB70000000000000000000000000000000000095
:10EB80000000000000000000000000000000000085
:10EB90000000000000000000000000000000000075
:10EBA0000000000000000000000000000000000065
:10EBB0000000000000000000205BA0A5A0A5A04A66
:10EBC0000000000000000000000000000000000045
:10EBD0000000000000000000000000000000000035
:10EBE0000000000000000000000000000000000025
:10EBF0000000000000000000000000000000000015
:10EC00000000000000000000000000000000000004
:10EC100000000000000000000000000000000000F4
:10EC200000000000000000000000000000000000E4
:10EC300000000000000000000000000000000000D4
:10EC400000000000000000000000000000000000C4
:10EC500000000000000000000000000000000000B4
:10EC600000000000000000000000000000000000A4
:10EC70000000000000000000000000000000000094
:10EC80000000000000000000000000000000000084
:10EC90000000000000000000000000000000000074
:10ECA0000000000000000000000000000000000064
:10ECB0000000000000000000C352C2A5C1A54242EE
:10ECC0000000000000000000000000000000000044
:10ECD0000000000000000000000000000000000034
:10ECE0000000000000000000000000000000000024
:10ECF0000000000000000000000000000000000014
:10ED00000000000000000000000000000000000003
:10ED100000000000000000000000000000000000F3
:10ED200000000000000000000000000000000000E3
:10ED300000000000000000000000000000000000D3
:10ED400000000000000000000000000000000000C3
:10ED500000000000000000000000000000000000B3
:10ED600000000000000000000000000000000000A3
:10ED70000000000000000000000000000000000093
:10ED80000000000000000000000000000000000083
:10ED90000000000000000000000000000000000073
:10EDA0000000000000000000000000000000000063
:10EDB00000000000000000000000E018002100003A
:10EDC0000000000000000000000000000000000043
:10EDD0000000000000000000000000000000000033
:10EDE0000000000000000000000000000000000023
:10EDF0000000000000000000000000000000000013
:020000040801F1
:1066B00000000000000000000000C128C2300000FF
:1066C00000000000000000000000000000000000CA
:1066D00000000000000000000000000000000000BA
:1066E00000000000000000000000000000000000AA
:1066F000000000000000000000000000000000009A
:106700000000000000000000000000000000000089
:106710000000000000000000000000000000000079
:106720000000000000000000000000000000000069
:106730000000000000000000000000000000000059
:106740000000000000000000000000000000000049
:106750000000000000000000000000000000000039
:106760000000000000000000000000000000000029
:106770000000000000000000000000000000000019
:106780000000000000000000000000000000000009
:1067900000000000000000000000000000000000F9
:1067A00000000000000000000000000000000000E9
:1067B0000000000000000000459280728072658A2F
:1067C00000000000000000000000000000000000C9
:1067D00000000000000000000000000000000000B9
:1067E00000000000000000000000000000000000A9
:1067F0000000000000000000000000000000000099
:106800000000000000000000000000000000000088
:106810000000000000000000000000000000000078
:106820000000000000000000000000000000000068
:106830000000000000000000000000000000000058
:106840000000000000000000000000000000000048
:106850000000000000000000000000000000000038
:106860000000000000000000000000000000000028
:106870000000000000000000000000000000000018
:106880000000000000000000000000000000000008
:1068900000000000000000000000000000000000F8
:1068A00000000000000000000000000000000000E8
:1068B0000000000000004684E25A80FD80FDE25A9C
:1068C00046840000000000000000000000000000FE
:1068D00000000000000000000000000000000000B8
:1068E00000000000000000000000000000000000A8
:1068F0000000000000000000000000000000000098
:106900000000000000000000000000000000000087
:106910000000000000000000000000000000000077
:106920000000000000000000000000000000000067
:106930000000000000000000000000000000000057
:106940000000000000000000000000000000000047
:106950000000000000000000000000000000000037
:106960000000000000000000000000000000000027
:106970000000000000000000000000000000000017
:106980000000000000000000000000000000000007
:1069900000000000000000000000000000000000F7
:1069A00000000000000000000000000000000000E7
:1069B00000000000E01878D68EC680ADA0AD6EC68F
:1069C00078D6E01800000000000000000000000081
:1069D00000000000000000000000000000000000B7
:1069E00000000000000000000000000000000000A7
:1069F0000000000000000000000000000000000097
:106A00000000000000000000000000000000000086
:106A10000000000000000000000000000000000076
:106A20000000000000000000000000000000000066
:106A30000000000000000000000000000000000056
:106A40000000000000000000000000000000000046
:106A50000000000000000000000000000000000036
:106A60000000000000000000000000000000000026
:106A70000000000000000000000000000000000016
:106A80000000000000000000000000000000000006
:106A900000000000000000000000000000000000F6
:106AA00000000000000000000000000000000000E6
:106AB000000000004008C2B5A0A5A0A5A0A5A0ADFB
:106AC000A1AD000000000000000000000000000078
:106AD00000000000000000000000000000000000B6
:106AE00000000000000000000000000000000000A6
:106AF0000000000000000000000000000000000096
:106B00000000000000000000000000000000000085
:106B10000000000000000000000000000000000075
:106B20000000000000000000000000000000000065
:106B30000000000000000000000000000000000055
:106B40000000000000000000000000000000000045
:106B50000000000000000000000000000000000035
:106B60000000000000000000000000000000000025
:106B70000000000000000000000000000000000015
:106B80000000000000000000000000000000000005
:106B900000000000000000000000000000000000F5
:106BA00000000000000000000000000000000000E5
:106BB00000000000E018A2B5A0A5A0A5A0A5A0AD6A
:106BC000A1AD8008000000000000000000000000EF
:106BD00000000000000000000000000000000000B5
:106BE00000000000000000000000000000000000A5
:106BF0000000000000000000000000000000000095
:106C00000000000000000000000000000000000084
:106C10000000000000000000000000000000000074
:106C20000000000000000000000000000000000064
:106C30000000000000000000000000000000000054
:106C40000000000000000000000000000000000044
:106C50000000000000000000000000000000000034
:106C60000000000000000000000000000000000024
:106C70000000000000000000000000000000000014
:106C80000000000000000000000000000000000004
:106C900000000000000000000000000000000000F4
:106CA00000000000000000000000000000000000E4
:106CB000000000000000C06BA0A580A580A580A5F5
:106CC0004063000000000000000000000000000021
:106CD00000000000000000000000000000000000B4
:106CE00000000000000000000000000000000000A4
:106CF0000000000000000000000000000000000094
:106D00000000000000000000000000000000000083
:106D10000000000000000000000000000000000073
:106D20000000000000000000000000000000000063
:106D30000000000000000000000000000000000053
:106D40000000000000000000000000000000000043
:106D50000000000000000000000000000000000033
:106D60000000000000000000000000000000000023
:106D70000000000000000000000000000000000013
:106D80000000000000000000000000000000000003
:106D900000000000000000000000000000000000F3
:106DA00000000000000000000000000000000000E3
:106DB00000000000000061216084409D609D00741F
:106DC0008121000000000000000000000000000021
:106DD00000000000000000000000000000000000B3
:106DE00000000000000000000000000000000000A3
:106DF0000000000000000000000000000000000093
:106E00000000000000000000000000000000000082
:106E10000000000000000000000000000000000072
:106E20000000000000000000000000000000000062
:106E30000000000000000000000000000000000052
:106E40000000000000000000000000000000000042
:106E50000000000000000000000000000000000032
:106E60000000000000000000000000000000000022
:106E70000000000000000000000000000000000012
:106E80000000000000000000000000000000000002
:106E900000000000000000000000000000000000F2
:106EA00000000000000000000000000000000000E2
:106EB000000000000000657480A5D2CEB1CE80A590
:106EC000047400000000000000000000000000004A
:106ED00000000000000000000000000000000000B2
:106EE00000000000000000000000000000000000A2
:106EF0000000000000000000000000000000000092
:106F00000000000000000000000000000000000081
:106F10000000000000000000000000000000000071
:106F20000000000000000000000000000000000061
:106F30000000000000000000000000000000000051
:106F40000000000000000000000000000000000041
:106F50000000000000000000000000000000000031
:106F60000000000000000000000000000000000021
:106F70000000000000000000000000000000000011
:106F80000000000000000000000000000000000001
:106F900000000000000000000000000000000000F1
:106FA00000000000000000000000000000000000E1
:106FB000000000000000223A2095EB7389630195E0
:106FC000A2310000000000000000000000000000EE
:106FD00000000000000000000000000000000000B1
:106FE00000000000000000000000000000000000A1
:106FF0000000000000000000000000000000000091
:107000000000000000000000000000000000000080
:10E3B00000000000000000000000411040100000BC
:10E3C000000000000000000000000000000000004D
:10E3D000000000000000000000000000000000003D
:10E3E000000000000000000000000000000000002D
:10E3F000000000000000000000000000000000001D
:10E40000000000000000000000000000000000000C
:10E4100000000000000000000000000000000000FC
:10E4200000000000000000000000000000000000EC
:10E4300000000000000000000000000000000000DC
:10E4400000000000000000000000000000000000CC
:10E4500000000000000000000000000000000000BC
:10E4600000000000000000000000000000000000AC
:10E47000000000000000000000000000000000009C
:10E48000000000000000000000000000000000008C
:10E49000000000000000000000000000000000007C
:10E4A000000000000000000000000000000000006C
:10E4B00000000000000000000000A359A36100005C
:10E4C000000000000000000000000000000000004C
:10E4D000000000000000000000000000000000003C
:10E4E000000000000000000000000000000000002C
:10E4F000000000000000000000000000000000001C
:10E50000000000000000000000000000000000000B
:10E5100000000000000000000000000000000000FB
:10E5200000000000000000000000000000000000EB
:10E5300000000000000000000000000000000000DB
:10E5400000000000000000000000000000000000CB
:10E5500000000000000000000000000000000000BB
:10E5600000000000000000000000000000000000AB
:10E57000000000000000000000000000000000009B
:10E58000000000000000000000000000000000008B
:10E59000000000000000000000000000000000007B
:10E5A000000000000000000000000000000000006B
:10E5B000000000000000268A03412093008BE2380F
:10E5C0002692000000000000000000000000000093
:10E5D000000000000000000000000000000000003B
:10E5E000000000000000000000000000000000002B
:10E5F000000000000000000000000000000000001B
:10E60000000000000000000000000000000000000A
:10E6100000000000000000000000000000000000FA
:10E6200000000000000000000000000000000000EA
:10E6300000000000000000000000000000000000DA
:10E6400000000000000000000000000000000000CA
:10E6500000000000000000000000000000000000BA
:10E6600000000000000000000000000000000000AA
:10E67000000000000000000000000000000000009A
:10E68000000000000000000000000000000000008A
:10E69000000000000000000000000000000000007A
:10E6A000000000000000000000000000000000006A
:10E6B000000000002008000020BC40F540F500C428
:10E6C0000000400800000000000000000000000002
:10E6D000000000000000000000000000000000003A
:10E6E000000000000000000000000000000000002A
:10E6F000000000000000000000000000000000001A
:10E700000000000000000000000000000000000009
:10E7100000000000000000000000000000000000F9
:10E7200000000000000000000000000000000000E9
:10E7300000000000000000000000000000000000D9
:10E7400000000000000000000000000000000000C9
:10E7500000000000000000000000000000000000B9
:10E7600000000000000000000000000000000000A9
:10E770000000000000000000000000000000000099
:10E780000000000000000000000000000000000089
:10E790000000000000000000000000000000000079
:10E7A0000000000000000000000000000000000069
:10E7B0000000A14A6FCE479D00B460FD60FD00B42B
:10E7C000479D8EC6A14A0000000000000000000026
:10E7D0000000000000000000000000000000000039
:10E7E0000000000000000000000000000000000029
:10E7F0000000000000000000000000000000000019
:10E800000000000000000000000000000000000008
:10E8100000000000000000000000000000000000F8
:10E8200000000000000000000000000000000000E8
:10E8300000000000000000000000000000000000D8
:10E8400000000000000000000000000000000000C8
:10E8500000000000000000000000000000000000B8
:10E8600000000000000000000000000000000000A8
:10E870000000000000000000000000000000000098
:10E880000000000000000000000000000000000088
:10E890000000000000000000000000000000000078
:10E8A0000000000000000000000000000000000068
:10E8B0000000AAADF3A4B6D620A580B560B520A50A
:10E8C000B6D6F3ACAAAD00000000000000000000C6
:10E8D0000000000000000000000000000000000038
:10E8E0000000000000000000000000000000000028
:10E8F0000000000000000000000000000000000018
:10E900000000000000000000000000000000000007
:10E9100000000000000000000000000000000000F7
:10E9200000000000000000000000000000000000E7
:10E9300000000000000000000000000000000000D7
:10E9400000000000000000000000000000000000C7
:10E9500000000000000000000000000000000000B7
:10E9600000000000000000000000000000000000A7
:10E970000000000000000000000000000000000097
:10E980000000000000000000000000000000000087
:10E990000000000000000000000000000000000077
:10E9A0000000000000000000000000000000000067
:10E9B0000000626313DF49C6A0A5A0A5A0A5A0A57D
:10E9C00069C612DF42630000000000000000000082
:10E9D0000000000000000000000000000000000037
:10E9E0000000000000000000000000000000000027
:10E9F0000000000000000000000000000000000017
:10EA00000000000000000000000000000000000006
:10EA100000000000000000000000000000000000F6
:10EA200000000000000000000000000000000000E6
:10EA300000000000000000000000000000000000D6
:10EA400000000000000000000000000000000000C6
:10EA500000000000000000000000000000000000B6
:10EA600000000000000000000000000000000000A6
:10EA70000000000000000000000000000000000096
:10EA80000000000000000000000000000000000086
:10EA90000000000000000000000000000000000076
:10EAA0000000000000000000000000000000000066
:10EAB0000000E073C4C5A0ADA0A5A0A5A0A5A0A519
:10EAC000A2B5C3BD406300000000000000000000CC
:10EAD0000000000000000000000000000000000036
:10EAE0000000000000000000000000000000000026
:10EAF0000000000000000000000000000000000016
:10EB00000000000000000000000000000000000005
:10EB100000000000000000000000000000000000F5
:10EB200000000000000000000000000000000000E5
:10EB300000000000000000000000000000000000D5
:10EB400000000000000000000000000000000000C5
:10EB500000000000000000000000000000000000B5
:10EB600000000000000000000000000000000000A5
:10EB70000000000000000000000000000000000095
:10EB80000000000000000000000000000000000085
:10EB90000000000000000000000000000000000075
:10EBA0000000000000000000000000000000000065
:10EBB00000000095C4BDA0ADA0A5A0A5A0A5A0A5DE
:10EBC000A1B5A3B5407C00000000000000000000DB
:10EBD0000000000000000000000000000000000035
:10EBE0000000000000000000000000000000000025
:10EBF0000000000000000000000000000000000015
:10EC00000000000000000000000000000000000004
:10EC100000000000000000000000000000000000F4
:10EC200000000000000000000000000000000000E4
:10EC300000000000000000000000000000000000D4
:10EC400000000000000000000000000000000000C4
:10EC500000000000000000000000000000000000B4
:10EC600000000000000000000000000000000000A4
:10EC70000000000000000000000000000000000094
:10EC80000000000000000000000000000000000084
:10EC90000000000000000000000000000000000074
:10ECA0000000000000000000000000000000000064
:10ECB0000000406380AD80A580A5A0A5A0A5A0A56B
:10ECC000A0A5A0A5A05200000000000000000000C8
:10ECD0000000000000000000000000000000000034
:10ECE0000000000000000000000000000000000024
:10ECF0000000000000000000000000000000000014
:10ED00000000000000000000000000000000000003
:10ED100000000000000000000000000000000000F3
:10ED200000000000000000000000000000000000E3
:10ED300000000000000000000000000000000000D3
:10ED400000000000000000000000000000000000C3
:10ED500000000000000000000000000000000000B3
:10ED600000000000000000000000000000000000A3
:10ED70000000000000000000000000000000000093
:10ED80000000000000000000000000000000000083
:10ED90000000000000000000000000000000000073
:10EDA0000000000000000000000000000000000063
:10EDB00000002000C06B80A5A0A580A5A0A5A0A5EF
:10EDC000809D205B000000000000000000000000AB
:10EDD0000000000000000000000000000000000033
:10EDE0000000000000000000000000000000000023
:10EDF0000000000000000000000000000000000013
:10EE00000000000000000000000000000000000002
:10EE100000000000000000000000000000000000F2
:10EE200000000000000000000000000000000000E2
:10EE300000000000000000000000000000000000D2
:10EE400000000000000000000000000000000000C2
:10EE500000000000000000000000000000000000B2
:10EE600000000000000000000000000000000000A2
:10EE70000000000000000000000000000000000092
:10EE80000000000000000000000000000000000082
:10EE90000000000000000000000000000000000072
:10EEA0000000000000000000000000000000000062
:10EEB0000000200000006063209D209D209D209D7B
:10EEC000C052200000000000000000000000000010
:10EED0000000000000000000000000000000000032
:10EEE0000000000000000000000000000000000022
:10EEF0000000000000000000000000000000000012
:10EF00000000000000000000000000000000000001
:10EF100000000000000000000000000000000000F1
:10EF200000000000000000000000000000000000E1
:10EF300000000000000000000000000000000000D1
:10EF400000000000000000000000000000000000C1
:10EF500000000000000000000000000000000000B1
:10EF600000000000000000000000000000000000A1
:10EF70000000000000000000000000000000000091
:10EF80000000000000000000000000000000000081
:10EF90000000000000000000000000000000000071
:10EFA0000000000000000000000000000000000061
:10EFB0000000445B25740095A1AD6CBE6CBEA0AD95
:10EFC000C08C657C834A0000000000000000000047
:10EFD0000000000000000000000000000000000031
:10EFE0000000000000000000000000000000000021
:10EFF0000000000000000000000000000000000011
:10F000000000000000000000000000000000000000
:10F0100000000000000000000000000000000000F0
:10F0200000000000000000000000000000000000E0
:10F0300000000000000000000000000000000000D0
:10F0400000000000000000000000000000000000C0
:10F0500000000000000000000000000000000000B0
:10F0600000000000000000000000000000000000A0
:10F070000000000000000000000000000000000090
:10F080000000000000000000000000000000000080
:10F090000000000000000000000000000000000070
:10F0A0000000000000000000000000000000000060
:10F0B00000006121857C619D27B6F3CEF3D6E5B5CE
:10F0C000619D657CC1100000000000000000000090
:10F0D0000000000000000000000000000000000030
:10F0E0000000000000000000000000000000000020
:10F0F0000000000000000000000000000000000010
:10F1000000000000000000000000000000000000FF
:10F1100000000000000000000000000000000000EF
:10F1200000000000000000000000000000000000DF
:10F1300000000000000000000000000000000000CF
:10F1400000000000000000000000000000000000BF
:10F1500000000000000000000000000000000000AF
:10F16000000000000000000000000000000000009F
:10F17000000000000000000000000000000000008F
:10F18000000000000000000000000000000000007F
:10F19000000000000000000000000000000000006F
:10F1A000000000000000000000000000000000005F
:10F1B00000008008A463429D269D31B6B0AD249521
:10F1C0000295645B200000000000000000000000C9
:10F1D000000000000000000000000000000000002F
:10F1E000000000000000000000000000000000001F
:10F1F000000000000000000000000000000000000F
:10F2000000000000000000000000000000000000FE
:10F2100000000000000000000000000000000000EE
:10F2200000000000000000000000000000000000DE
:10F2300000000000000000000000000000000000CE
:10F2400000000000000000000000000000000000BE
:10F2500000000000000000000000000000000000AE
:10F26000000000000000000000000000000000009E
:10F27000000000000000000000000000000000008E
:10F28000000000000000000000000000000000007E
:10F29000000000000000000000000000000000006E
:10F2A000000000000000000000000000000000005E
:10F2B000000000000000A031C01000000000E018B5
:10F2C00060290000000000000000000000000000B5
:10F2D000000000000000000000000000000000002E
:10F2E000000000000000000000000000000000001E
:10F2F000000000000000000000000000000000000E
:10F3000000000000000000000000000000000000FD
:020000040802F0
:1061B000000000000000000000004451645900008D
:1061C00000000000000000000000000000000000CF
:1061D00000000000000000000000000000000000BF
:1061E00000000000000000000000000000000000AF
:1061F000000000000000000000000000000000009F
:10620000000000000000000000000000000000008E
:10621000000000000000000000000000000000007E
:10622000000000000000000000000000000000006E
:10623000000000000000000000000000000000005E
:10624000000000000000000000000000000000004E
:10625000000000000000000000000000000000003E
:10626000000000000000000000000000000000002E
:10627000000000000000000000000000000000001E
:10628000000000000000000000000000000000000E
:1062900000000000000000000000000000000000FE
:1062A00000000000000000000000000000000000EE
:1062B000000000000000000000000372247A0000CB
:1062C00000000000000000000000000000000000CE
:1062D00000000000000000000000000000000000BE
:1062E00000000000000000000000000000000000AE
:1062F000000000000000000000000000000000009E
:10630000000000000000000000000000000000008D
:10631000000000000000000000000000000000007D
:10632000000000000000000000000000000000006D
:10633000000000000000000000000000000000005D
:10634000000000000000000000000000000000004D
:10635000000000000000000000000000000000003D
:10636000000000000000000000000000000000002D
:10637000000000000000000000000000000000001D
:10638000000000000000000000000000000000000D
:1063900000000000000000000000000000000000FD
:1063A00000000000000000000000000000000000ED
:1063B00000000000A569A8AA0000C0ABA0AB0000C7
:1063C000679AC67100000000000000000000000095
:1063D00000000000000000000000000000000000BD
:1063E00000000000000000000000000000000000AD
:1063F000000000000000000000000000000000009D
:10640000000000000000000000000000000000008C
:10641000000000000000000000000000000000007C
:10642000000000000000000000000000000000006C
:10643000000000000000000000000000000000005C
:10644000000000000000000000000000000000004C
:10645000000000000000000000000000000000003C
:10646000000000000000000000000000000000002C
:10647000000000000000000000000000000000001C
:10648000000000000000000000000000000000000C
:1064900000000000000000000000000000000000FC
:1064A00000000000000000000000000000000000EC
:1064B000000000006118229BC05160FD80FDC051AA
:1064C000229B611800000000000000000000000096
:1064D00000000000000000000000000000000000BC
:1064E00000000000000000000000000000000000AC
:1064F000000000000000000000000000000000009C
:10650000000000000000000000000000000000008B
:10651000000000000000000000000000000000007B
:10652000000000000000000000000000000000006B
:10653000000000000000000000000000000000005B
:10654000000000000000000000000000000000004B
:10655000000000000000000000000000000000003B
:10656000000000000000000000000000000000002B
:10657000000000000000000000000000000000001B
:10658000000000000000000000000000000000000B
:1065900000000000000000000000000000000000FB
:1065A00000000000000000000000000000000000EB
:1065B000A01040424021406A80FD80FD80FD80FDAA
:1065C000206A40294042A0100000000000000000A6
:1065D00000000000000000000000000000000000BB
:1065E00000000000000000000000000000000000AB
:1065F000000000000000000000000000000000009B
:10660000000000000000000000000000000000008A
:10661000000000000000000000000000000000007A
:10662000000000000000000000000000000000006A
:10663000000000000000000000000000000000005A
:10664000000000000000000000000000000000004A
:10665000000000000000000000000000000000003A
:10666000000000000000000000000000000000002A
:10667000000000000000000000000000000000001A
:10668000000000000000000000000000000000000A
:1066900000000000000000000000000000000000FA
:1066A0000000000000000000000000000000E018F2
:1066B000E8B5D5D68DCE206B80FD60FD40FD60FD38
:1066C000206B8DCEF4D6E7ADC018000000000000AE
:1066D00000000000000000000000000000000000BA
:1066E00000000000000000000000000000000000AA
:1066F000000000000000000000000000000000009A
:106700000000000000000000000000000000000089
:106710000000000000000000000000000000000079
:106720000000000000000000000000000000000069
:106730000000000000000000000000000000000059
:106740000000000000000000000000000000000049
:106750000000000000000000000000000000000039
:106760000000000000000000000000000000000029
:106770000000000000000000000000000000000019
:106780000000000000000000000000000000000009
:1067900000000000000000000000000000000000F9
:1067A0000000000000000000000000000000C052D7
:1067B00095D6CE839AD6429D60BD60B560B540BD8A
:1067C000429D9AD6CF8395D6C052000000000000AB
:1067D00000000000000000000000000000000000B9
:1067E00000000000000000000000000000000000A9
:1067F0000000000000000000000000000000000099
:106800000000000000000000000000000000000088
:106810000000000000000000000000000000000078
:106820000000000000000000000000000000000068
:106830000000000000000000000000000000000058
:106840000000000000000000000000000000000048
:106850000000000000000000000000000000000038
:106860000000000000000000000000000000000028
:106870000000000000000000000000000000000018
:106880000000000000000000000000000000000008
:1068900000000000000000000000000000000000F8
:1068A0000000000000000000000000000000003AAE
:1068B000D1D6FFFFBBF7A0A5A0A5A0A5A0A5A0A528
:1068C000A0A5BAEFFFFFD1D6003A000000000000FB
:1068D00000000000000000000000000000000000B8
:1068E00000000000000000000000000000000000A8
:1068F0000000000000000000000000000000000098
:106900000000000000000000000000000000000087
:106910000000000000000000000000000000000077
:106920000000000000000000000000000000000067
:106930000000000000000000000000000000000057
:106940000000000000000000000000000000000047
:106950000000000000000000000000000000000037
:106960000000000000000000000000000000000027
:106970000000000000000000000000000000000017
:106980000000000000000000000000000000000007
:1069900000000000000000000000000000000000F7
:1069A00000000000000000000000000000002000C7
:1069B000209505BEC1A5A0A5A0A5A0A5A0A5A0A5A0
:1069C000A0A5C1AD05B6C08C00000000000000000D
:1069D00000000000000000000000000000000000B7
:1069E00000000000000000000000000000000000A7
:1069F0000000000000000000000000000000000097
:106A00000000000000000000000000000000000086
:106A10000000000000000000000000000000000076
:106A20000000000000000000000000000000000066
:106A30000000000000000000000000000000000056
:106A40000000000000000000000000000000000046
:106A50000000000000000000000000000000000036
:106A60000000000000000000000000000000000026
:106A70000000000000000000000000000000000016
:106A80000000000000000000000000000000000006
:106A900000000000000000000000000000000000F6
:106AA0000000000000000000000000000000E039CD
:106AB000C2B5C5CDA2B5A0A5A0A5A0A5A0A5A0A51D
:106AC000A0A5C3BDC5CDA0AD2019000000000000E9
:106AD00000000000000000000000000000000000B6
:106AE00000000000000000000000000000000000A6
:106AF0000000000000000000000000000000000096
:106B00000000000000000000000000000000000085
:106B10000000000000000000000000000000000075
:106B20000000000000000000000000000000000065
:106B30000000000000000000000000000000000055
:106B40000000000000000000000000000000000045
:106B50000000000000000000000000000000000035
:106B60000000000000000000000000000000000025
:106B70000000000000000000000000000000000015
:106B80000000000000000000000000000000000005
:106B900000000000000000000000000000000000F5
:106BA0000000000000000000000000000000E052B3
:106BB000A2B5C5C5A1ADA0A5A0A5A0A5A0A5A0A54D
:106BC000A0A5A3BDC5C5A0AD203A000000000000EF
:106BD00000000000000000000000000000000000B5
:106BE00000000000000000000000000000000000A5
:106BF0000000000000000000000000000000000095
:106C00000000000000000000000000000000000084
:106C10000000000000000000000000000000000074
:106C20000000000000000000000000000000000064
:106C30000000000000000000000000000000000054
:106C40000000000000000000000000000000000044
:106C50000000000000000000000000000000000034
:106C60000000000000000000000000000000000024
:106C70000000000000000000000000000000000014
:106C80000000000000000000000000000000000004
:106C900000000000000000000000000000000000F4
:106CA00000000000000000000000000000000032B2
:106CB000A0A580A580A5A0A5A0A5A0A5A0A5A0A5EC
:106CC000A0A5A0A5A0A5A0A520210000000000006F
:106CD00000000000000000000000000000000000B4
:106CE00000000000000000000000000000000000A4
:106CF0000000000000000000000000000000000094
:106D00000000000000000000000000000000000083
:106D10000000000000000000000000000000000073
:106D20000000000000000000000000000000000063
:106D30000000000000000000000000000000000053
:106D40000000000000000000000000000000000043
:106D50000000000000000000000000000000000033
:106D60000000000000000000000000000000000023
:106D70000000000000000000000000000000000013
:106D80000000000000000000000000000000000003
:106D900000000000000000000000000000000000F3
:106DA00000000000000000000000000000002000C3
:106DB0006084A0A5A0A580A5A0A580A580A580A58C
:106DC000A0A5A0A5A0A5C06B0000000000000000C9
:106DD00000000000000000000000000000000000B3
:106DE00000000000000000000000000000000000A3
:106DF0000000000000000000000000000000000093
:106E00000000000000000000000000000000000082
:106E10000000000000000000000000000000000072
:106E20000000000000000000000000000000000062
:106E30000000000000000000000000000000000052
:106E40000000000000000000000000000000000042
:106E50000000000000000000000000000000000032
:106E60000000000000000000000000000000000022
:106E70000000000000000000000000000000000012
:106E80000000000000000000000000000000000002
:106E900000000000000000000000000000000000F2
:106EA00000000000000000000000000000000000E2
:106EB0004008A06B809DA0A5A0A5A0A5A0A5A0A509
:106EC000A0A5409D005B2000000000000000000025
:106ED00000000000000000000000000000000000B2
:106EE00000000000000000000000000000000000A2
:106EF0000000000000000000000000000000000092
:106F00000000000000000000000000000000000081
:106F10000000000000000000000000000000000071
:106F20000000000000000000000000000000000061
:106F30000000000000000000000000000000000051
:106F40000000000000000000000000000000000041
:106F50000000000000000000000000000000000031
:106F60000000000000000000000000000000000021
:106F70000000000000000000000000000000000011
:106F80000000000000000000000000000000000001
:106F900000000000000000000000000000000000F1
:106FA00000000000000000000000000000000000E1
:106FB00000000000804A009D009500950095009516
:106FC000209DA03100000000000000000000000033
:106FD00000000000000000000000000000000000B1
:106FE00000000000000000000000000000000000A1
:106FF0000000000000000000000000000000000091
:107000000000000000000000000000000000000080
:107010000000000000000000000000000000000070
:107020000000000000000000000000000000000060
:107030000000000000000000000000000000000050
:107040000000000000000000000000000000000040
:107050000000000000000000000000000000000030
:107060000000000000000000000000000000000020
:107070000000000000000000000000000000000010
:107080000000000000000000000000000000000000
:1070900000000000000000000000000000000000F0
:1070A0000000000000000000000000000000C01010
:1070B0008463423AE073A0A5A0A505B605B6A0A5D5
:1070C000A0A54063C34A445B4008000000000000E4
:1070D00000000000000000000000000000000000B0
:1070E00000000000000000000000000000000000A0
:1070F0000000000000000000000000000000000090
:10710000000000000000000000000000000000007F
:10711000000000000000000000000000000000006F
:10712000000000000000000000000000000000005F
:10713000000000000000000000000000000000004F
:10714000000000000000000000000000000000003F
:10715000000000000000000000000000000000002F
:10716000000000000000000000000000000000001F
:10717000000000000000000000000000000000000F
:1071800000000000000000000000000000000000FF
:1071900000000000000000000000000000000000EF
:1071A0000000000000000000000000000000411985
:1071B000A57CA584619DA0A54BBEF3CEF3CE28BED1
:1071C000A0A5429DA57C657C400800000000000051
:1071D00000000000000000000000000000000000AF
:1071E000000000000000000000000000000000009F
:1071F000000000000000000000000000000000008F
:10720000000000000000000000000000000000007E
:10721000000000000000000000000000000000006E
:10722000000000000000000000000000000000005E
:10723000000000000000000000000000000000004E
:10724000000000000000000000000000000000003E
:10725000000000000000000000000000000000002E
:10726000000000000000000000000000000000001E
:10727000000000000000000000000000000000000E
:1072800000000000000000000000000000000000FE
:1072900000000000000000000000000000000000EE
:1072A00000000000000000000000000000000000DE
:1072B000A34AA57C619DA0A5B1CEF3CEF3CE8FC627
:1072C000A0A52295A67CC1310000000000000000AE
:1072D00000000000000000000000000000000000AE
:1072E000000000000000000000000000000000009E
:1072F000000000000000000000000000000000008E
:10730000000000000000000000000000000000007D
:10731000000000000000000000000000000000006D
:10732000000000000000000000000000000000005D
:10733000000000000000000000000000000000004D
:10734000000000000000000000000000000000003D
:10735000000000000000000000000000000000002D
:10736000000000000000000000000000000000001D
:10737000000000000000000000000000000000000D
:1073800000000000000000000000000000000000FD
:1073900000000000000000000000000000000000ED
:1073A00000000000000000000000000000000000DD
:1073B0006121857CE394A0A592C6F3D6F3CEEEB509
:1073C000A0A5E48C2574C018000000000000000097
:1073D00000000000000000000000000000000000AD
:1073E000000000000000000000000000000000009D
