:020000040800F2
:1000000060B70220C1010008CD2B0008251E0008A2
:10001000E12100084D060008BB3000080000000088
:10002000000000000000000000000000D52C0008C7
:10003000C9060008000000009D2C0008D72C00080D
:10004000DB010008DB010008DB010008DB01000820
:10005000DB010008DB010008CB060008DB0100081B
:10006000DB010008DB010008DB010008DB01000800
:10007000DB010008DB010008DB010008DB010008F0
:10008000DB010008DB010008DB010008DB010008E0
:10009000DB010008DB010008DB010008DB010008D0
:1000A000DB010008DB010008DB010008DB010008C0
:1000B000DB010008DB010008DB010008DB010008B0
:1000C000DB010008DB010008DB010008DB010008A0
:1000D000DB010008DB010008DB010008DB01000890
:1000E000DB010008DB010008DB010008DB01000880
:1000F000DB010008DB010008DB010008DB01000870
:10010000DB010008DB010008DB010008DB0100085F
:10011000DB010008DB010008DB010008DB0100084F
:10012000DB010008DB010008DB010008DB0100083F
:10013000DB010008DB010008DB010008DB0100082F
:10014000DB010008DB010008DB010008DB0100081F
:10015000DB010008DB010008DB010008DB0100080F
:10016000DB010008DB010008DB010008DB010008FF
:10017000DB010008DB010008DB01000800000000D3
:10018000DB010008DB010008DB010008DB010008DF
:10019000DB010008DB010008DB010008DB010008CF
:1001A000DB010008DB010008DB010008DFF80CD0F0
:1001B00000F03AFA004800471536000860B7022000
:1001C0000648804706480047FEE7FEE7FEE7FEE7F1
:1001D000FEE7FEE7FEE7FEE7FEE7FEE7B92D0008D3
:1001E000AD0100082DE9F05F0546002092469B46D0
:1001F00088460646814640241BE02846414647463D
:10020000224600F092F953465A46C01A914110D343
:1002100011461846224600F079F92D1A67EB0108BD
:100220004F4622460120002100F070F917EB00092B
:100230004E41201EA4F10104DFDC484631462A4627
:100240004346BDE8F09F40EA01039B0703D009E065
:1002500008C9121F08C0042AFAD203E011F8013BB2
:1002600000F8013B521EF9D27047D2B201E000F80B
:10027000012B491EFBD270470022F6E710B513464A
:100280000A4604461946FFF7F0FF204610BD2DE947
:10029000FE4F804681EA0300C00F0C46009021F01B
:1002A000004123F00045B8EB0200A94105D24046C9
:1002B000214690461C460B46024623F00040104360
:1002C00047D0270DC7F30A00C3F30A510290401A22
:1002D000019040286BDAC3F3130040F4801B0098B0
:1002E000924620B10023D2EB030A63EB0B0B01987B
:1002F0005946C0F14002504600F008F906460D4646
:1003000050465946019A00F020F910EB080061416F
:10031000002487EA115284EAE7731A4340D0009A16
:1003200062B3019A012A4FEA075215DC001B61EB08
:1003300002014FF0004202EA0752CDE90042001CE0
:1003400041F5801132462B4600F020F903B0BDE89C
:10035000F08F40462146F9E7001B61EB0201001CCB
:1003600041F5801300185B412018A2F5001747EBF8
:10037000030140EAD570B6196D4111E06D084FEAEE
:10038000360645EAC0754FEA0752001B61EB0201D1
:10039000001C41F5801149084FEA30000019514115
:1003A00032462B4603B0BDE8F04F00F0E0B80098AD
:1003B000012240000023D0EB020263EBE0730098BF
:1003C00021464FEAE074B8EB000061EB0401E9E775
:1003D00083F000435BE781F0004158E72DE9FE4FD1
:1003E00081EA030404F0004421F0004100944FF03E
:1003F000000B23F0004350EA01045ED052EA0304EC
:100400005BD0C3F30A54C1F30A552C44A4F2F3346D
:100410000194A0FB0254C1F3130141F48011C3F312
:10042000130343F4801301FB024400FB034E840AD0
:10043000970A44EA815447EA8357A4FB0768029568
:100440008D0A05FB07854FEA932C04FB0C54270506
:10045000029D4FEA065847EA1637B5EB08056EEBE2
:10046000070C870E920E47EA811742EA8312A7FB18
:100470000201B6EB0B0164EB00042B0D43EA0C33D5
:100480005E1844EB1C50DA465146E7FB0201C5F307
:1004900013044FEA0B3343EA14534FEA0432019C2E
:1004A00043EA0603A4F10C040294009CCDE900B4D5
:1004B00000F06CF803B0BDE8F08F00200146F9E7CA
:1004C0000EB540F2334102910021CDE900110A46F8
:1004D0000B4600F05BF803B000BDC1F30A5210B543
:1004E000C1F3130140F2FF3341F480119A4201DA63
:1004F000002010BD40F233439A42A2F2334203DCA3
:10050000524200F012F810BD904010BD202A04DBCA
:10051000203A00FA02F1002070479140C2F1200316
:1005200020FA03F3194390407047202A04DB203A55
:1005300021FA02F00021704721FA02F3D040C2F103
:1005400020029140084319467047202A06DBCB174A
:10055000203A41FA02F043EAE07306E041FA02F37E
:10056000D040C2F12002914008431946704710B5AF
:10057000141E73F1000408DA401C41F100019218C6
:100580005B411A4301D120F0010010BD2DE9F04D6F
:1005900092469B4611B1B1FA81F202E0B0FA80F2C4
:1005A00020329046FFF7B2FF04460F4640EA0A00A9
:1005B00041EA0B0153465A46084313D0114653EA09
:1005C000010019D0C8F140025046FFF7AEFF0546C2
:1005D0000E46504659464246FFF798FF084305D05D
:1005E000012004E020463946BDE8F08D0020054397
:1005F00046EAE0762C4337430A986305E40AA0EB09
:1006000008000022FD0A44EA47540A3002D50020BF
:100610000146E9E7010510196941DDE908450019BE
:100620006941BDE8F04DA2E7064C074D06E0E068E1
:1006300040F0010394E8070098471034AC42F6D329
:10064000FFF7B8FD1C4404083C440408FEE7000022
:1006500070B500240B4E25460121304600F032FED5
:1006600018B1641CE4B2002505E06D1CEDB2032D49
:1006700001D9002070BD1E2002F000FF642CEBD3D6
:10068000012070BD000002400D48D0F80002C1B248
:100690000C480170428841EA420189B2CA43418054
:1006A000120703D04278012A02D003E001224270EF
:1006B000090701D0002070470021417001207047D8
:1006C00000004042380000207047012000F008BDC3
:1006D000102A10D0D0F82C20D1E9002342EA0322BE
:1006E0000B89097B4FEA034343EA016142EA0102B5
:1006F00003D1C26002E0C268EEE7C2624FF00000C0
:1007000070470000102A10D0D0F82820D1E900232B
:1007100042EA03220B89097B4FEA034343EA016162
:1007200042EA010203D1826002E08268EEE782625F
:100730004FF000007047000030B50A68102A1AD048
:10074000026A104B02EA0302D1E9013443EA0403CE
:10075000D1E9034544EA050443EA04034C69896985
:1007600043EA442343EA413141EA020141F00801EE
:1007700003D1016002E00268E3E701624FF000008C
:1007800030BD00008101F0FF38B50446094D4FF03F
:10079000AA300090A879042360436A46002102F041
:1007A00005FAA879042360436A460021401C02F040
:1007B000FDF938BD00AF02202DE9FC47254C8946E4
:1007C0000746002600250DF1040810E0CDF8008052
:1007D000618878438B084A46002102F075F86088EA
:1007E000BDF80410B1EB900F04D16D1CADB2A0792F
:1007F000A842EBD8A079A84202D10020BDE8FC872E
:10080000384601F07FFE20B1314613A002F056FCBD
:1008100015E0B9F1FF3F12D000200AE0628807FB23
:10082000010093080022114602F092F9BDF804007D
:10083000401CADF80400A17980B28142EED8761C4C
:10084000B6B2032EBED3394609A002F037FC012010
:10085000D4E7000000AF02206572726F72206572EB
:1008600061736520626C6F636B3A25640D0A00004A
:1008700062616420626C6F636B20636865636B65A3
:10088000643A25640D0A000038B50446104D002076
:100890008DF80000A879012360436A46002102F028
:1008A00047F89DF80000FF2801D0022038BDA87944
:1008B000012360436A460021401C02F039F89DF88C
:1008C0000000FF2801D0012038BD002038BD000005
:1008D00000AF02202DE9FF4F014635489346994667
:1008E000827981B0B1FBF2F3B1FBF2F602FB131790
:1008F0008046304600F0C2F8B8F80A100546A94212
:1009000003D2012005B0BDE8F08F00242EE0BC42E8
:100910001CD3B9F1000F19D0B8F802200299511A6E
:10092000494501D289B201E01FFA89F18A46009156
:1009300005FB004106FB00405B46029A01F052FCB9
:100940000021D344A9EB0A09029105E005FB00410F
:1009500006FB004001F028FD30B12846FFF714FFE8
:10096000012000F027F8C4E7641CA4B298F8060040
:100970004146A042CBD8C0B20F46A04215D128466E
:1009800000F02EFA304601F0BDFD00207A89796929
:1009900009E000BF31F81030B34202D121F8105005
:1009A00003E0401C80B28242F4D80020AAE7000095
:1009B00000AF0220F8B506460020294C4FF6FF7222
:1009C00003E0616921F81020401C61898142F8D858
:1009D0000020A08105461CE0A079042368436A46F4
:1009E000002101F0A5FF9DF80000FF280CD1B6B151
:1009F000A079012368436A460021401C01F098FF5A
:100A00009DF80000FF280AD0294616A002F056FBE8
:100A10006D1C6189A942DFD80020626917E09DF84A
:100A200002009DF8031000EB01206189814202D988
:100A3000616921F81050A089401CA081E8E700BF3F
:100A400032F810308B4201D3E08102E0401C814239
:100A5000F6D8E089642801D20220F8BD0020F8BD54
:100A600000AF022062616420626C6F636B20696E6C
:100A70006465783A25640D0A0000000070B5104ED8
:100A8000104C71892268491E914200D2216000F009
:100A900001052946206800F017F8411C0AD1708929
:100AA0002168401E884207D92946206000F00CF8D2
:100AB000411C01D0206070BD4FF0FF3070BD0000C0
:100AC00000AF022078000020F8B50D460021401C40
:100AD0000091040013D00C4F012600BF26EA040049
:100AE000A8420AD1B879611E484304236A4600210E
:100AF00001F01EFF0098401C04D0641EEED14FF0A0
:100B0000FF30F8BD601EF8BD00AF0220F8B5254CDF
:100B100000263546A68113E02846FFF7B5FE70B9DA
:100B2000284601F0EFFC38B129461FA002F0C6FAB2
:100B30002846FFF729FE02E0A089401CA0816D1C19
:100B40006089A842E8D8A1891BA002F0B7FAA08961
:100B5000642801D20120F8BDC0EB401000EB400139
:100B60006420B1FBF0F70025009610E02846FFF75F
:100B70008BFE58B9A079022368436A46194602F0F1
:100B800015F80098401C0090B84203D06D1C608995
:100B9000A842EBD80120FFF70DFF0028DBD0022090
:100BA000F8BD000000AF022042616420626C6F63F8
:100BB0006B3A25640D0A0000676F6F645F626C6FAB
:100BC000636B6E756D3A25640D0A000010B501F077
:100BD000C5FC00BB184C616911B1002003F036F868
:100BE00060894100002003F03DF86061618949009F
:100BF000FFF742FB606970B10120FFF7DBFE60B1D7
:100C00000EA002F05BFAFFF781FF90B111A002F095
:100C100055FA022010BD012010BD618912A002F01A
:100C20004DFAA18916A002F049FAE18919A002F053
:100C300045FA002010BD000000AF0220666F726D03
:100C40006174206E616E6420666C6173682E2E2E56
:100C50000D0A0000666F726D6174206661696C65D3
:100C600064210D0A00000000746F74616C20626CD6
:100C70006F636B206E756D3A25640D0A00000000ED
:100C8000676F6F6420626C6F636B206E756D3A25C1
:100C9000640D0A0076616C696420626C6F636B207E
:100CA0006E756D3A25640D0A000000000549CA8979
:100CB000824202D24FF6FF707047496931F8100046
:100CC0007047000000AF02202DE9FF4F81B01F46A2
:100CD00016468A460024DFF804917BE0B9F802004A
:100CE00099F80610B0FBF6F048430AEB0405B5FB93
:100CF000F0F04B46FFF7DAFF5989814203D8012013
:100D000005B0BDE8F08F59889946B1FBF6FC9B7998
:100D10000CFB03FCB5FBFCF20CFB12527243B2FB62
:100D2000F1F500FB035BB2FBF1F001FB1028A1EB36
:100D30000800B0FBF6F085B2381BA84200D285B29D
:100D400005FB06F083B200901FFA88F15846019A1D
:100D500001F09AFC032809D100981FFA88F183B2A8
:100D60005846019A01F090FC032804D004282CD0A6
:100D700058B30220C4E7DDE900321FFA88F1584673
:100D8000FFF7A8FD99F80610BBFBF1F04FF0FF311B
:100D9000FFF712FD80B999F80610BBFBF1F00021B6
:100DA000FFF70AFD99F806108046BBFBF1F001F051
:100DB000A9FBB8F1000F08D099F80610BBFBF1F0C1
:100DC000FFF7E2FC0120FFF7F5FD01982C4406FB3C
:100DD00005000190BC4281D3002091E700AF0220C2
:100DE00008B5CC218DF80010044901236A468979A1
:100DF0004843194601F0DAFE08BD000000AF0220AA
:100E000070B500240E4E254604F1B000C0B200219A
:100E100001F00CFF0021084601F008FF002110201E
:100E200001F004FF5FF0000006EBC001401CC0B2FF
:100E30000D558028F8D3641CE4B2082CE4D370BDAF
:100E4000BC0200200248017842780270417070476D
:100E50005000002070B5114E002400BF04F1B00016
:100E6000C0B2002101F0E2FE0021084601F0DEFEE2
:100E70000021102001F0DAFE5FF0000506EBC5004E
:100E80000121005D01F0D2FE6D1CEDB2802DF5D385
:100E9000641CE4B2082CE1D370BD0000BC02002049
:100EA0002DE9F05F1F4690460E46054680281ED26B
:100EB000402E1CD20024DFF848A0DFF848B01BE029
:100EC000600701D118F8019B04F007011AF801002E
:100ED00010EA090F02D19BF8002001E00A480278CD
:100EE000B1B2A8B200F076F86D1C802D02D30020BC
:100EF000BDE8F09F641CE4B2BC42E1D30120F7E7F7
:100F0000F043040851000020500000202DE9F04774
:100F10001E4614460F4681460025DDF820800CE071
:100F20003346224639464846FFF7BAFF7F1C04EB9A
:100F3000D604700700D0641C6D1C4545F0D3BDE895
:100F4000F0872DE9F0471E4614460F468146DDF82E
:100F50002080FFF777FF00250CE033462246394614
:100F60004846FFF79DFF7F1C04EBD604700700D0B6
:100F7000641C6D1C4545F0D3BDE8F047FFF762BF28
:100F800038B504460068411F57291DD2A268DAB15E
:100F9000E168C9B12021009120236168FFF7B6FF05
:100FA000217C102000290090D4E90001E2684FF074
:100FB0002803A0F1050001F1210107D0FFF7C1FFCF
:100FC00060698047012038BD002038BDFFF79EFFD3
:100FD000F6E7000030B5802801D8402901D900206B
:100FE00030BD084D01F0070405EBC00000EBD10057
:100FF00001230178A3400AB1194300E0994301702D
:10100000012030BDBC0200202DE9F05F0F460446F0
:10101000782801D8382F02D90020BDE8F09FA2F12E
:101020002000602800D32022203A1449D0B2DFF8F3
:101030005090002601EBC00ADFF848B01AF806808D
:10104000002500BF19F8050010EA080F02D19BF82F
:10105000002001E00C480278B9B2A0B2FFF7BAFF55
:101060006D1CEDB2641C082DECD3761CF6B2083C66
:101070007F1C082EE0D30120CFE70000F0400408D9
:10108000F0430408510000205000002070B51446C1
:101090000E4605462278002A08D031462846641CB0
:1010A000FFF7B2FF002801D0AD1DF3E770BD0000CF
:1010B000014A1070517070475000002010B501288F
:1010C0000DD1FFF7C5FA002809D002F091FA01F01E
:1010D0008EFD02F0E1FEBDE8104001F0FFBD10BD45
:1010E000044910B50A68024202D00860FFF7E6FF23
:1010F00010BD0000143C01402DE9F84FDFF890B11D
:1011000000224FF001084FF0030A4FF00F090BF1D6
:10111000040E00BF0B6808FA02F42340A3426ED10C
:101120004D68022D01D0122D0ED1D50800EB850C93
:10113000DCF820505607F70E09FA07F6B5430E699A
:10114000BE402E43CCF82060066855000F790AFA9D
:1011500005FC07F0030726EA0C06AF40374307609B
:101160004E68012E05D0022E03D0112E01D0122E72
:101170000ED18768CE6827EA0C07AE403E438660F2
:101180004668A6430C79C4F3001494403443446089
:10119000C4688E6824EA0C04AE402643C6604C68DE
:1011A000E4006FD53B4C256845F4804525602468F4
:1011B00022F0030504F480440094374C2E19D6F82D
:1011C000084895072F0F09FA07F5AC43334DA8429D
:1011D00001D100252EE0324DA84201D1012529E0A0
:1011E000304DA84201D1022524E02F4DA84201D163
:1011F00003251FE02D4DA84202D104251AE041E04D
:101200002B4DA84201D1052514E02A4DA84201D159
:1012100006250FE0284DA84201D107250AE0274DF9
:10122000A84201D1082505E0254DA84201D1092594
:1012300000E00A25BD402543C6F80858DBF8004009
:101240005D464E689C43F60300D51C432C60DEF8D7
:10125000004075464E689C43B60300D51C432C6085
:101260000B4D08352C684E689C43F60200D51C4394
:101270002C60074D0C352C684E689C43B60200D597
:101280001C432C60521C102AFFF444AFBDE8F88FB9
:10129000003C014044380240003001400000024060
:1012A0000004024000080240000C0240001002400E
:1012B0000014024000180240001C024000200240BE
:1012C000002402400069084000D0012070470AB1A4
:1012D000816170470904FBE701488068704700009E
:1012E0003C00002002488168027811448160704708
:1012F0003C0000200B4810B5016841F4007101600A
:10130000016841F480610160016841F4807101600D
:10131000032000F0E1F8002000F006F800F024F8C7
:10132000002010BD003C024070B50D4D04464FF446
:101330007A712878B1FBF0F00A490968B1FBF0F046
:1013400000F096FB48B9102C07D200222146501E0F
:1013500000F0A2F800206C6070BD012070BD00009C
:101360003C000020480000200A4808B5016841F40C
:1013700080410160006800F4804000900548001F33
:10138000016841F080510160006800F080500090D9
:1013900008BD00004438024070B515460E460400F2
:1013A00003D094F8210010B107E0012070BD0020A7
:1013B00084F82000204600F021F8211D2068FFF766
:1013C000BBF9D4E900023146FFF79CF9D4E90002E9
:1013D0002946FFF77DF960681028206808D0016A67
:1013E00041F004010162012084F82100002070BD59
:1013F000016841F004010160F5E7000070B5234881
:1014000086B00024016841F001010160006800F02D
:10141000010005901D480838016841F0080101608D
:10142000016801F008010591016841F010010160B7
:101430000068032500F0100005904020CDE900046D
:101440000120CDE90205124E69463046FFF754FEF1
:101450008020009001A9022081E831000C20049036
:1014600069463046FFF748FE4DF633000090694666
:1014700002943046FFF740FE4FF4F060009069465A
:101480000448FFF739FE06B070BD0000383802404E
:10149000000C024000100240F0B40E4B1B680C46DA
:1014A000C3F30223C3F10705042D00D90425191D38
:1014B000072901D2002300E0DB1E012606FA05F110
:1014C000491E214099409E40761E16403143F0BC93
:1014D00001F07DBB0CED00E0064900F00702086852
:1014E0004FF6FF03184040EA0220034A1043086009
:1014F000704700000CED00E00000FA052DE9F8430C
:101500001748016841F0805101600068154F00F0F4
:101510008050012600903E64FFF7DEFE05464FF442
:101520007A78114C05E000BFFFF7D6FE401B40451E
:101530000DD86068C003F7D57E64FFF7CDFE054681
:10154000464607E0FFF7C8FE401BB04202D9032021
:10155000BDE8F88360688003F4D50020F8E7000058
:101560004038024000000E42007000400149012056
:101570000862704700000E4202494A6802434A600E
:1015800070470000007000400548016841F002010A
:1015900001600448016841F00401016030BF7047F8
:1015A0000070004010ED00E02DE9F0470E46050008
:1015B00065D0DFF81481D8F80000F7B200F00F0012
:1015C000B04207D288F80070D8F8000000F00F0091
:1015D000B04254D128683D4C810712D5400703D54D
:1015E000206840F4E05020602878000703D5206888
:1015F00040F4604020602068A96820F0F0000843B3
:1016000020602878C0072DD0304968680839012843
:1016100012D0022813D0032811D0096889070029A5
:101620002DDA216821F0030101432160FFF754FE08
:10163000814641F2883A0EE009688903EFE70968BC
:101640008901ECE7FFF748FEA0EB0901514502D9FB
:101650000320BDE8F0872068696800F00C00B0EB5B
:10166000810FEFD1D8F80010404601F00F01B142D0
:1016700007D90770006800F00F00B04201D00120C8
:10168000E7E72878400705D52068E96820F4E050AE
:10169000084320602878000706D52068296920F4CF
:1016A000604040EAC100206000F016F82168084A56
:1016B000C1F30311515CC840064908600020FFF7E0
:1016C00033FE0020C5E70000003C0240083802401D
:1016D000E040040848000020154810B5006810F0EC
:1016E0000C02144813D01449042A0FD0082A0ED132
:1016F0000F4C241F2268236802F03F025B0207D5CB
:101700002068C0F38810A0FB010106E0084610BD68
:101710002168C1F38811A1FB00010023FEF762FDDF
:101720002168C1F30141491C4900B0FBF1F010BD33
:10173000083802400024F40040787D012DE9F84F7C
:10174000050076D02878DFF8F8B2BE4CC00749D043
:10175000DBF800105846C1F38101012908D0006868
:10176000C0F3810002280AD1201D0068400206D57E
:101770002068800336D568680028E2D032E06868C7
:10178000B0F5803F10D0B0F5A02F206810D020F425
:1017900080302060206820F4802020606868A0B13C
:1017A000FFF79AFD06460CE0206840F48030F4E72D
:1017B00040F480202060F7E7FFF78EFD801B64284F
:1017C00073D820688003F7D50CE0FFF785FD064647
:1017D00005E000BFFFF780FD801B6428F0D820687B
:1017E0008003F7D42878DFF8608280074FF0000983
:1017F0003ED5DBF80010584611F00C0F09D00068F8
:10180000C0F3810002280BD18D48001F0068400200
:1018100006D42068800715D5E868012809D111E0B1
:10182000E868B8B10120C8F80000FFF755FD06468A
:1018300005E002E1FFF750FD801B0228C0D82068B8
:101840008007F7D52068296920F0F80040EAC10038
:1018500020600DE0C8F80090FFF73EFD064604E06A
:10186000FFF73AFD801B02281FD820688007F7D4B5
:101870002878000722D5724E744869696C3671B1B8
:1018800001210160FFF728FD074604E0FFF724FD72
:10189000C01B022809D830688007F7D50EE0C0F8D1
:1018A0000090FFF719FD074605E083E0FFF714FD00
:1018B000C01B02287ED830688007F7D428784007FC
:1018C00068D5DFF87CA100270AF1380ADAF80000B1
:1018D000C0000BD4DAF8001041F08051CAF80010B3
:1018E000DAF80000012700F080500090584E306870
:1018F000C00510D4306840F480703060FFF7ECFC15
:10190000009005E0FFF7E8FC0099401A022851D842
:101910003068C005F6D54A4EA868683601280FD051
:101920000528306810D020F001003060306820F0C9
:1019300004003060A868B8B1FFF7CEFC00900FE05B
:10194000306840F00100F4E740F004003060F7E751
:10195000FFF7C2FC0099411A41F28830814264D8F5
:1019600030688007F4D50EE0FFF7B6FC009007E082
:10197000FFF7B2FC0099411A41F28830814254D8F5
:1019800030688007F4D42FB1DAF8001021F08051CC
:10199000CAF80010A869C0B3DBF80010C1F38101D8
:1019A00002294AD00228484607D0C8F86000FFF74D
:1019B00093FC00E039E005463AE04746C8F860008D
:1019C000FFF78AFC064604E0FFF786FC801B02282E
:1019D0002BD820688001F7D4D5E907010843A96A0C
:1019E0001C4A490802EB01416A6A41EA8211084334
:1019F00095F82C1040EA01611148001F0160012098
:101A00003866FFF769FC054605E014E0FFF764FC63
:101A1000401B022809D820688001F7D50BE000BFE1
:101A2000FFF75AFC401B022802D90320BDE8F88FBB
:101A300020688001F4D40020F8E70120F6E70000D8
:101A4000083802400038024000004742800E4742FA
:101A5000007000400000FFFF4FF0E02104280869FB
:101A600003D020F004000861704740F00400FAE75A
:101A700010B5401EB0F1807F01D3012010BD4FF0A2
:101A8000E02460610F21601701F0A1F80020A0613F
:101A900007202061002010BD30B590F83820012AC1
:101AA00020D0012280F83820022380F839300368E2
:101AB0005C6824F070045C6003685C680D682C430B
:101AC0005C6003689C6824F080049C6003689C68E8
:101AD00049680C439C6080F83920002180F8381058
:101AE000084630BD022030BD10B5040003D094F884
:101AF000390010B107E0012010BD002084F8380043
:101B0000204600F00DF8022084F83900211D2068DD
:101B100001F07CF9012084F83900002010BD00009C
:101B200008B50068B0F1804F08D10548016841F060
:101B300001010160006800F00100009008BD000094
:101B40004038024070B5044690F83800012817D09C
:101B5000012584F83850022084F839002068826812
:101B600022F0770222F47F4282600868502837D042
:101B70000DDC202859D005DC88B3102841D151E074
:101B8000022070BD302853D040283AD13FE0602871
:101B90002ED070280BD0B0F5805F03D0B0F5005F79
:101BA0002FD110E02068816821F0070115E0CB6893
:101BB000D1E90121206801F094F92168886840F09A
:101BC000770088601DE0CB68D1E90121206801F031
:101BD00088F92068816841F48041816011E01EE04D
:101BE000CA684968206801F045FA5021206806E07B
:101BF000CA684968206801F04EFA6021206801F047
:101C00007AF984F83950002084F8380070BDCA6829
:101C10004968206801F02EFA40212068EFE7002192
:101C20002068ECE710212068E9E720212068E6E73A
:101C300030212068E3E7000010B586B00446142187
:101C40006846FEF719FB2068B0F1804F16D10C48AA
:101C50000021026842F001020260006800F0010009
:101C600005904FF4004000900220CDE901010120D1
:101C7000CDE9031069460348FFF73EFA06B010BDF0
:101C8000303802400000024070B5044690F8380039
:101C90000D4601280DD0012684F83860022084F812
:101CA000390042B1042A18D0082A2AD00C2A4DD172
:101CB00039E0022070BD206801F026F920688169B2
:101CC00041F0080181612068816921F0040181618E
:101CD000206881692A69114311E0206801F040F908
:101CE0002068816941F4006181612068816921F483
:101CF00080618161206881692A6941EA02218161EC
:101D000024E0206801F05EF92068C16941F0080113
:101D1000C1612068C16921F00401C1612068C16905
:101D20002A69114311E0206801F07CF92068C1693B
:101D300041F40061C1612068C16921F48061C16121
:101D40002068C1692A6941EA0221C16184F83960C9
:101D5000002084F8380070BD10B5040003D094F85A
:101D6000390010B107E0012010BD002084F83800D0
:101D7000204600F00CF8022084F83900211D20686C
:101D800001F044F8012084F83900002010BD7047AC
:101D900010B504460068012201F098F8084920684F
:101DA000884202D00749884203D1416C41F4004186
:101DB00041642068016841F001010160002010BD0C
:101DC000000001400004014010B5044600680022F4
:101DD00001F07CF8114841F2111221689310814200
:101DE00002D00F48814209D1086A104206D1086A20
:101DF000184203D1486C20F4004048642068016A0E
:101E0000114206D1016A194203D1016821F0010192
:101E10000160012084F83900002010BD000001405D
:101E200000040140FEE700002DE9F04186B01421D6
:101E30006846FEF721FA1B48016841F0080101607D
:101E4000016801F008010591016841F00401016099
:101E50000068154F00F004004FF400540590002274
:101E600021463846FFF733FADFF840804FF47076AA
:101E7000002231464046FFF72AFA00940124022549
:101E8000CDE90145694638460394FFF735F90096D8
:101E9000CDE90145694640460394FFF72DF906B0A8
:101EA000BDE8F08130380240000C024000080240DA
:101EB00010B5FFF7B9FF00F003F9112000F046F963
:101EC000002000F029F9CF2000F040F9002000F0B8
:101ED00023F9C12000F020F9302000F01DF9ED2099
:101EE00000F034F9642000F017F9032000F014F931
:101EF000122000F011F9812000F00EF9E82000F026
:101F000025F9852000F008F9112000F005F9782066
:101F100000F002F9F62000F019F9012000F0FCF8B9
:101F2000302000F0F9F8002000F0F6F8CB2000F0A7
:101F30000DF9392000F0F0F82C2000F0EDF8002029
:101F400000F0EAF8342000F0E7F8052000F0E4F8AB
:101F5000F72000F0FBF8202000F0DEF8EA2000F087
:101F6000F5F8002000F0D8F8002000F0D5F8C020E7
:101F700000F0ECF8202000F0CFF8C12000F0E6F8E7
:101F8000112000F0C9F8C52000F0E0F8312000F081
:101F9000C3F83C2000F0C0F8C72000F0D7F8A92013
:101FA00000F0BAF83A2000F0D1F8552000F0B4F86B
:101FB000362000F0CBF8482000F0AEF8B12000F059
:101FC000C5F8002000F0A8F8182000F0A5F8B4200B
:101FD00000F0BCF8002000F09FF8002000F09CF812
:101FE000F22000F0B3F8002000F096F8262000F070
:101FF000ADF8012000F090F8E02000F0A7F80F20E5
:1020000000F08AF8172000F087F8142000F084F818
:10201000092000F081F80C2000F07EF8062000F086
:102020007BF8432000F078F8752000F075F8362032
:1020300000F072F8082000F06FF8132000F06CF840
:10204000052000F069F8102000F066F80B2000F081
:1020500063F8082000F060F8E12000F077F8002035
:1020600000F05AF81F2000F057F8232000F054F831
:10207000032000F051F80E2000F04EF8042000F08C
:102080004BF8392000F048F8252000F045F84D20A5
:1020900000F042F8062000F03FF80D2000F03CF878
:1020A0000B2000F039F8332000F036F8372000F02C
:1020B00033F80F2000F030F8BDE8104001F098BA76
:1020C00010B5FFF7B1FE084C0020C4F8B40264203C
:1020D00004F52D7401F0D2F901202060BDE8104014
:1020E000322001F0CBB900000080414230B50546F6
:1020F0000C462A2000F02AF8AD1CA8B200F01CF80B
:102100002B2000F023F8641CA0B200F015F8BDE805
:1021100030402C2000F01AB830B5064C0021C4F82D
:10212000A0120125C4F8A45204F5287400F0B8FDEB
:10213000256030BD0000414210B50446000AFFF79B
:10214000EBFFE0B2BDE81040FFF7E6BF10B5064C6C
:102150000021C4F8A012C4F8A41204F5287400F0F9
:102160009FFD0120206010BD0000414270B586B087
:1021700014216846FEF780F816480025016841F0F2
:1021800004010160016801F004010591016841F05A
:10219000010101600068104E00F001004FF400449E
:1021A00005902A4621463046FFF791F80094012415
:1021B00002200395CDE9014069463046FEF79CFFB9
:1021C000CDE90045694605480294FEF795FF06B043
:1021D00070BD00003038024000080240000002409C
:1021E000FEE700002DE9F84F1C4600230A9F164623
:1021F0000D46ADF80030DFF8A4A19AF80620B0FB38
:10220000F2F1B5FBF2F2C907B1EBC27F7DD1DFF885
:102210009091984689F80080DFF888B18BF80080AB
:102220008BF800808BF80000020A8BF80020000C6D
:102230008BF80000352089F80000002000F0BEFB7C
:1022400020B9012000F0BAFB010002D00220BDE855
:10225000F88F85204A4689F80000D9468BF800603F
:10226000330A8BF800308BF800502B0A8BF80030C3
:102270002B0C8BF800301E2000F0D8F8F8054FF03A
:10228000100B4FF0E0430ED0404605E014F8010B70
:102290001870BDF80000401CADF80000BDF800004B
:1022A000B842F3D36CE07F0A750AD6464FF020405F
:1022B00046469A4630E000BFD0F8803043F04003F5
:1022C000C0F88030ADF800604FF40078D44608E0E4
:1022D00014F8013B8CF80030BDF800305B1CADF801
:1022E0000030BDF800304345F2D300BFD0F8843051
:1022F0005B06FBD5D0F894C001EB05080EEB880314
:10230000C3F81CC0D0F8803000E042E023F0400366
:10231000C0F88030491CC9B2B942CDD3BEF80230F2
:102320000BEB850018447146ADF800001E2000F04C
:102330007DF885201070BDF8003089F80030BDF8B8
:1023400000301B0A89F800301E2000F06FF801EB06
:102350008500ADF8006053461C300DE05FF00001D1
:1023600010F8014B1C70491CC9B20429F8D3BDF800
:102370000010491CADF80010BDF80010B942EDD3B3
:1023800082F800B0C82001F087F800F003FB402875
:1023900001D001205BE7002059E7000000AF0220D8
:1023A00000000170000002702DE9F0410E461C494A
:1023B0008A79B0FBF2F1B6FBF2F2C907B1EBC27F4A
:1023C00029D1184F00253D70174C257025702070BD
:1023D000010A2170000C207035203870284600F06A
:1023E000EDFA18B9012000F0E9FA10B10220BDE8B9
:1023F000F08185203870257025702670300A207095
:10240000300C207010203870C82001F045F800F022
:10241000C1FA402801D00120E9E70020E7E70000E9
:1024200000AF0220000001700000027001B50098AA
:1024300001E0401E00900028FBD108BD2DE9F041CD
:10244000064690460D46012000F044F80446294611
:10245000002000F03FF807464146012000F03AF81E
:1024600005464146002000F035F8014684EA0700A1
:1024700068404840A0F57061FF3905D00AA000F01F
:102480001DFE0120BDE8F0816C4021460DA000F04A
:1024900015FEE00804F00703315C01229A40514028
:1024A00031540020EEE700003262697420656363F6
:1024B000206572726F72206F72206D6F72650D0AE7
:1024C000000000006572726F72706F733A25640DC0
:1024D0000A00000030B50346002002465FF0010408
:1024E00002F001059D4208D121FA02F5ED0704D062
:1024F000550804FA05F5284480B2521CD2B2182AB5
:10250000EED330BD104910B50969104A914201D18E
:10251000C00103E00E4A914200D180010D4A6021C2
:1025200011700D490870030A0B70000C0870D02060
:102530001070042000F0A2FF00F02CFA402801D017
:10254000012010BD002010BD00AF022089260048E8
:10255000569590DC000001700000027010B527480D
:1025600088B02549016010214160002181604FF44D
:10257000C022C160C0E9041281610121C161022051
:102580000322CDE90002CDE90402CDE90201CDE943
:10259000060104AA69461948FEF7FEFE00F0ECF9B0
:1025A000642000F06BFF00F049F8144C40342061C7
:1025B000042000F029F8124B4FF480512269481092
:1025C0009A4207D14FF4875222806180E022A28094
:1025D000802208E00B4B9A420BD14FF40462228018
:1025E00060804022A280A27120816181002008B019
:1025F00010BD0120FBE70000600000A0C0AE02207B
:1026000089260048569590DC0A4A00B5EF211170E2
:10261000094A012111704FF0E04108700020087054
:102620000870087000F0B6F9402801D0012000BD04
:10263000002000BD00000170000002700CB51049C0
:10264000902008700F49002008704FF0E04001789A
:102650008DF8001001788DF8011001788DF80210C6
:1026600001788DF8031000788DF80400DDF8010082
:102670009DF8041000BA20F0FF0008430CBD0000D4
:1026800000000170000002702DE9FC5F4FF0000BAC
:102690001C4615460E468146ADF800B07549DA462F
:1026A00081F800B074480670320A027080F8009019
:1026B0004FEA192202704FEA194202703020087066
:1026C000002000F07BF918B9012000F077F910B173
:1026D0000220BDE8FC9FE1054FF0E0420ED05846D5
:1026E00005E0107805F8010BBDF80000401CADF8BE
:1026F0000000BDF80000A042F3D3B3E0670A740AFB
:102700004FF02041DFF874814FF400739346019538
:102710002AE000BFD1F8802042F04002C1F88020BA
:10272000002206E09BF8002005F8012BBDF80020F0
:10273000521CADF80020BDF800209A42F2D300BF31
:10274000D1F884205206FBD5D1F8942000EB040C7C
:1027500008EB8C0CCCF81C20D1F8802022F0400231
:10276000C1F88020401CC0B2B842D3D3B8F80200F0
:10277000102101EB84010844ADF800002320FFF78D
:1027800055FE3C4805210170BDF800203A490A7009
:10279000BDF80020120A0A70E02101701920FFF72D
:1027A00045FE002108EB8400ADF800105A463C308D
:1027B00007E0137800F8013BBDF800305B1CADF872
:1027C0000030BDF80030B3EB870FF2D3ADF8001046
:1027D00044E000BFBDF80000BDF80010204408EB45
:1027E0008000C06B214408EB8101C969884230D068
:1027F000BDF80000204408EB8000C26BBDF800006B
:10280000204408EB8000C1691DA000F057FC22465F
:10281000394621A000F052FC3246494624A000F07F
:102820004DFCBDF80000204408EB8000C269BDF8F3
:102830000000BDF80030204408EB8000C16B019817
:1028400000EB4320FFF7FAFD08B1042000E003206D
:102850008246BDF80000401CADF80000BDF8000045
:10286000B842B7D300F096F8402801D04FF0010AE3
:1028700050462EE7000001700000027000AF0220F9
:102880006572722068642C72643A307825782C3036
:102890007825780D0A0000006563636E756D2C6500
:1028A000636373746172743A25642C25640D0A00A5
:1028B000506167654E756D2C436F6C4E756D3A2592
:1028C000642C25640D0A0000F0B51D46164B00244B
:1028D000059F16461C70154A1170090A1170107078
:1028E000010A1170000C107030201870204600F0A2
:1028F00065F818B9012000F061F808B10220F0BDB8
:102900004FF0E04004E00168B14203D1641CA4B27E
:10291000AC42F8D33C8000F03DF8402801D00120C3
:10292000F0BD0020F0BD000000000170000002704A
:1029300030B4064D2C79641AE4B2A34200D9234680
:102940006C88214430BC89B2FFF79EBE00AF0220E4
:1029500008B500208DF80000064970200870192085
:10296000FFF764FD4FF0E04000788DF800009DF81F
:10297000000008BD00000170054900B5FF20087087
:1029800000F008F8402801D0012000BD002000BD63
:102990000000017008B500206FF06042CDF8000023
:1029A000FFF7D6FF400606D40098401C00909042E6
:1029B000F6D3022008BD402008BD000001B581B05B
:1029C0000020009009486FF07E41009A521C00924E
:1029D000D0F818229DF804309A4201D100200CBD95
:1029E000009A8A42F1D301200CBD000000804142D0
:1029F0002DE9F84F00261D46ADF80060514F8023A9
:102A000034463B70DFF840A18AF800104FEA112CE1
:102A10008AF800C08AF800004FEA102C8AF800C03B
:102A2000000C8AF800001E20FFF700FDE8054FF0BB
:102A3000E04811D0ADF8006009E000BF12F8010BCA
:102A400088F80000BDF80000401CADF80000BDF89B
:102A50000000A842F2D366E06D0A490A4FF0204018
:102A6000DFF8E890B3464FF4007C29E0D0F88030DE
:102A700043F04003C0F88030ADF800B0664608E08F
:102A800012F8013B88F80030BDF800305B1CADF84F
:102A90000030BDF80030B342F2D300BFD0F884302C
:102AA0005B06FBD5D0F89430661809EB8606F36117
:102AB000D0F8803023F04003C0F88030641CE4B2CA
:102AC000AC42D3D3B9F80220102000EB81001044AF
:102AD000ADF800001E20FFF7A9FC85203870BDF876
:102AE00000208AF80020BDF80020120A8AF8002091
:102AF0001E20FFF79BFC09EB8100ADF800B01C30F5
:102B00000DE0002110F8012B88F80020491CC9B203
:102B10000429F7D3BDF80010491CADF80010BDF82A
:102B20000010A942EDD310203870C82000F0B4FC8A
:102B3000FFF730FF402802D00120BDE8F88F0020C9
:102B4000FBE70000000001700000027000AF0220EF
:102B50002DE9F041134F1E46002480233B70124D97
:102B60002970090A29702870010A2970000C287040
:102B70001E20FFF75BFC4FF0E04002E00260641CA7
:102B8000A4B2B442FAD310203870C82000F084FCFC
:102B9000FFF700FF402802D00120BDE8F0810020AF
:102BA000FBE70000000001700000027030B4064D29
:102BB0002C79641AE4B2A34200D923466C882144DC
:102BC00030BC89B2FFF714BF00AF0220704709077D
:102BD000090E002806DA00F00F0000F1E02080F86E
:102BE000141D704700F1E02080F80014704710B504
:102BF00000218D2000F01AF80021102000F016F8B6
:102C00000021BDE81040AE2000F010B810B5002142
:102C10008D2000F00BF80021142000F007F80021AF
:102C2000BDE81040AF2000F001B800002DE9F047EA
:102C3000074618480026012411B1C0F8944201E06B
:102C4000C0F894628046C0F890620A2000F024FC2C
:102C5000B146114E00254846C6F8B892390602D54D
:102C6000C6F8B44201E0C6F8B4020A2000F014FC31
:102C7000C6F8B8420A2000F00FFC78066D1C070E5B
:102C8000EDB2082DE7D3C8F89042C8F89442BDE8E9
:102C9000F0870000000042420000414270470000FF
:102CA00030B5082100230A4A0124050602D5C2F8DE
:102CB0009C4201E0C2F89C32C2F89832C2F89842B5
:102CC0004006000E491E11F0FF01EED130BD00009C
:102CD000000041427047FEF705BB0000114908B5EE
:102CE0004FF0FF3008600F483030016841F08051EC
:102CF000016000680C4900F08050009001200860DD
:102D0000FEF734FC0948016841F0080101600168E0
:102D100041F0040101608015FEF72EFCBDE808407B
:102D2000FEF732BC10380240400E474200700040AF
:102D300030B593B030216846FDF79EFA14210CA8F7
:102D4000FDF79AFA1A480025016841F080510160A8
:102D5000006800F0805011901648016841F440412D
:102D600001600068022400F44040119001200390AB
:102D70001020009406940490CDE907504FF4B470ED
:102D8000CDE9090404200B906846FEF7D7FCFEF756
:102D9000B5FB0CA90F2081E831004FF4A0500F9033
:102DA000E002109005210CA8FEF7FEFB13B030BD29
:102DB00040380240007000401048016841F4700142
:102DC00001600F48016841F0010101600C4A0021D7
:102DD0000832116002680B4B1A400260031D0A4A58
:102DE0001A60026822F48022026005480C300160FB
:102DF00002495806803908607047000088ED00E0FD
:102E000000380240FFFFF6FE10300024F0B50268E3
:102E1000234B244D244E254F254C4FF0804C984297
:102E200009D0604507D0A84205D0B04203D0B842CF
:102E300001D0A04204D122F0700E4A6842EA0E028C
:102E400098421BD0604519D0A84217D0B04215D087
:102E5000B84213D0A04211D0164DA8420ED0164D44
:102E6000A8420BD0154DA84208D0154DA84205D058
:102E7000144DA84202D0144DA84203D122F440754B
:102E8000CA682A4302608A68C2620A6882629842FB
:102E900001D0A04201D10969016301214161F0BD66
:102EA000000001400004004000080040000C004009
:102EB000000401400040014000440140004801403E
:102EC00000180040001C00400020004010B5012305
:102ED000046A8B409C430462036A8A401343036282
:102EE00010BD10B5846842EA032224F47F440A43EB
:102EF0002243826010BD826822F070020A4342F0D1
:102F0000070181607047000030B5026A22F00102BB
:102F10000262026A436884690D6824F073042543E1
:102F200022F002048A6822430B4CA04202D00B4CD0
:102F3000A0420BD122F00804CA6823F44073224354
:102F40004C6922F004021C438B6923434360856172
:102F500049684163026230BD000001400004014045
:102F600030B5026A22F010020262026A4368846984
:102F70000D6824F4E64444EA05248D6822F020021A
:102F800042EA05120D4DA84202D00D4DA8420ED1C5
:102F9000CD6822F0800242EA05124D6923F44063B5
:102FA00043EA85038D6922F0400243EA85034360CA
:102FB000846149688163026230BD00000000014005
:102FC0000004014030B5026A22F480720262036A92
:102FD0004268C46923F4007324F073050C682C4321
:102FE0008D6843EA05230D4DA84202D00C4DA8423E
:102FF0000ED1CD6823F4006343EA05234D6922F422
:10300000405242EA05128D6923F4806342EA0512B8
:103010004260C4614968C163036230BD0000014081
:103020000004014030B5026A22F480520262046A50
:103030004268C3690D6823F4E64343EA05238D68BB
:1030400024F4005444EA0534084DA84202D0084D47
:10305000A84204D14D6922F4804242EA85124260BE
:10306000C36149680164046230BD00000000014092
:103070000004014010B5036A046A24F001040462EC
:10308000846924F0F00444EA021423F00A020A439B
:103090008461026210BD10B5036A23F0100303625D
:1030A0008369046A23F4704343EA023224F0A003E4
:1030B00043EA01118261016210BDFEE70FB4054BC6
:1030C00010B503A9044A029800F018F810BC5DF886
:1030D00014FB0000CD3400087C00002002E008C88A
:1030E000121F08C1002AFAD170477047002001E082
:1030F00001C1121F002AFBD1704700002DE9FF4FCC
:103100008DB09B460F460446002606E025280BD0CE
:103110005A460F999047641C761C20780028F5D1F8
:1031200011B03046BDE8F08F0025A846012298492D
:1031300000E0054314F8013F203B02FA03F0084287
:10314000F7D120782E2817D114F8010F45F0040587
:103150002A280ED06FF02F022078A0F13001092923
:103160000AD808EB880102EB410100EB0108641C5E
:10317000F2E757F8048B641C20786C280DD004DC2F
:103180004C2812D06A2811D104E074280DD07A2876
:103190000CD10AE045F4001507E0617845F480158C
:1031A000814202D1641C05F58015641C2278692ACD
:1031B00045D008DC002AB3D0582A69D0632A10D041
:1031C000642A08D13BE0702A67D0732A13D0752A8D
:1031D0005CD0782A5CD010465A460F999047761CEE
:1031E000D3E017F8040B8DF8000000208DF80100E3
:1031F000E946012003E057F8049B4FF0FF306907D0
:103200004FF0000501D40AE06D1C45450DDA8542FA
:10321000FADB19F805100029F6D106E06D1C85428D
:10322000FCDB19F805100029F8D12E4404E019F848
:10323000010B5A460F9990476D1EF8D2A5E00A205F
:103240000021CDE90801C5F3025002280DD001CFBD
:10325000C117031E71F100030DDA4FF0000CD0EB23
:103260000C006CEB01012D2308E0FF1D27F0070780
:10327000F7E80201EDE72B0504D52B238DF8283064
:1032800001233BE0EB0739D02023F7E70A2000E0D9
:1032900010200021CDE9080107E01020002145F0B1
:1032A0000405CDE908014FF00808C5F302500228D3
:1032B0000FD001CF00214FF0000A2B071FD5702A35
:1032C0000DD0DDE908C38CF0100C5CEA030C0CD0C7
:1032D00015E0FF1D27F00707F7E80201EBE74022A2
:1032E0008DF828204FF0010A0BE050EA010306D0C8
:1032F00030238DF828308DF8292002239A46582A49
:1033000004D024A20DF120090B9209E026A2F9E7CE
:10331000DDE90823FCF766FF0B9B9B5C09F8013D88
:1033200050EA0102F4D1ADEB0900203008906807A3
:1033300001D44FF001080899884502DDA8EB01008F
:1033400000E000208046002506E00AA85A46405DBD
:103350000F9990476D1C761C5545F6DB04E0302034
:103360005A460F999047761CB8F10001A8F1010860
:10337000F5DC05E019F8010B5A460F999047761CC9
:103380000899481E08900029F4DC641CC5E600007A
:10339000092801003031323334353637383961622B
:1033A00063646566000000003031323334353637EF
:1033B00038394142434445460000000070B586B0AC
:1033C00014216846FCF758FF0D480025016841F0BC
:1033D000040101600068012200F00400094E94021B
:1033E000059021463046FDF772FF0121CDE90041ED
:1033F000CDE9021569463046FDF77EFE06B070BD88
:1034000030380240000C024070B586B01421684686
:10341000FCF732FF11480024016841F010010160FF
:10342000016801F010010591016841F00801016097
:1034300000680C2500F008000590CDE90054022634
:10344000694602960648FDF757FECDE900546946E5
:1034500004480296FDF750FE06B070BD30380240B9
:1034600000100240000C024010B504460420FEF794
:10347000F3FA0148046010BD4C00002070B5054609
:1034800000244FF47A7603E0304600F005F8641C1F
:10349000AC42F9D370BD000070B54FF0E0240022BB
:1034A00065690949A36909684843A1699942FCD043
:1034B00002D2A3EB010302E0A5EB010633441A4458
:1034C0000B468242F1D370BD4C00002070470000D3
:1034D00000224FF400410148FDF7F9BE0008024008
:1034E0000122D1030148FDF7F2BE000000080240AE
:1034F0000D48D0F808120D484170027841EA4201A7
:10350000C9B201700A0703D08278012A02D004E010
:1035100001228270C943090701D0002070470021B1
:103520008170012070470000008041422C00002083
:103530000D48D0F80C120D480171C27841EA4201E1
:10354000C9B2C1700A0703D04279012A02D004E04F
:1035500001224271C943090701D0002070470021B0
:103560004171022070470000008041422C00002081
:103570000D48D0F808120D48C171827941EA420124
:10358000C9B281710A0703D0027A012A02D004E08D
:1035900001220272C943090701D0002070470021AF
:1035A0000172032070470000000042422C000020FE
:1035B0000D48D0F80C120D488172427A41EA42015E
:1035C000C9B241720A0703D0C27A012A02D004E0CC
:1035D0000122C272C943090701D0002070470021AF
:1035E000C172042070470000000042422C000020FD
:1035F00000B51020FEF7AAFD28205DF804EBFEF7C9
:10360000A5BD00B51120FEF7A1FD29205DF804EB52
:10361000FEF79CBD2DED088BADF5007D802223A823
:10362000F649FCF710FEF5498022803103A8FCF72B
:103630000AFE5022F2494FA8FCF705FEF04950223D
:10364000503163A8FCF7FFFD00207C907D90FDF7D2
:1036500051FEFFF76DFBB420FFF706FF002000F0DE
:103660007DFA022000F07AFAFEF780FDC820FFF70D
:1036700005FFFFF735FFFEF71BFCFFF79FFEFFF787
:10368000C3FE00F06DFB00F00FFCFFF7BAFFFFF781
:10369000BDFA00210120FDF70BFDFDF7B1FB102560
:1036A00023A8CDE944504FA8439500264690D54C19
:1036B0008DF81C6143A84894FDF762FC4A20CDE9CF
:1036C000490503A84B9063A84C908DF8346149A834
:1036D0004E94FDF755FCFDF7BDFB00F0B9F9F7205E
:1036E00000F0DCF9FF2000F0D9F9002000F036FAF4
:1036F000022000F033FA9FEDC4AB9FEDC58B9FED28
:10370000C6BB9FEDC79B00BFFDF760FA0028FBD149
:10371000DFF814A34FF0000B5FF0000606EB8B11EF
:1037200001235A02C148891CFDF7CEFADFF8FC924A
:103730005FF0000505EB46081FFA88F10020FEF750
:10374000D5FC002409EB05270AEB082837F81400FC
:1037500008B938F81400FEF7EFFC641CA4B2802C02
:10376000F4D36D1CADB2022DE4D3761CB6B2402E5C
:10377000D4D3AF4C207800286DD06068ADA2401C37
:10378000606008210020FDF781FC61686420B1FBC6
:10379000F0F03030C2B208212220FDF735FC60681D
:1037A0000A25B0FBF5F0B0FBF5F105FB110208218D
:1037B0002A203032FDF728FC6068B0FBF5F105FBEC
:1037C0001102082132203032FDF71EFCFDF742FBCA
:1037D00060683D2879D2DFE800F0781F211F211FA3
:1037E000211F211F211F211F211F211F211F217880
:1037F00078787878787878781F232D3F495F493F2B
:103800002D231F2178787878787878781F787878E1
:10381000787878787878210060881AE0002018E0BD
:103820006088FCF74DFE0E46054646EC100B53EC47
:10383000192B24E06088FCF743FE0E46054646EC53
:10384000100B53EC1B2B1AE0FCF721FDFCF745FE97
:1038500080B200F031FB3CE06088FCF731FE0E46A0
:10386000054646EC100B53EC182B08E06088FCF77B
:1038700027FE0E4653EC1A2B46EC100B054651EC76
:10388000100BFCF7ABFD41EC110B46EC105B53EC5D
:10389000112B51EC100BD7E76088FCF711FE0E4698
:1038A00046EC100B05469FED651B51EC100B53ECDD
:1038B000112BFCF793FD41EC100B46EC115B53EC24
:1038C000102B51EC110BBFE7FFE73C2801D900207A
:1038D0006060FCF7D9FE012801D1FFF7F9FDFFF781
:1038E00007FE7D9911B1012914D106E0012811D1FB
:1038F0007D908DF81C01434806E001280AD1002084
:103900007D908DF81C014F48489043A8FDF738FB87
:10391000FDF7A0FAFFF70CFE7C9911B101291FD128
:103920000AE002281CD101207C900546207000206E
:10393000606000F0B1FA0AE0022811D100207C900A
:1039400020700546606000F0F5FA00F0ADFA3D48E1
:103950004E908DF8345149A8FDF712FBFDF77AFA25
:10396000FFF706FE0546FFF723FE2844032802D092
:10397000042839D108E07C98012835D16088B0F559
:10398000FA6F09D2801C06E07C9801282CD160884F
:10399000022801D3801E60802BA208214220FDF75F
:1039A00075FB61886420B1FBF0F03030C2B20821B1
:1039B0006420FDF729FB60880A25B0FBF5F0B0FB19
:1039C000F5F105FB110208216C203032FDF71CFBDC
:1039D0006088B0FBF5F105FB11020821742030323C
:1039E000FDF712FBFDF736FA0BF101001FFA80FB21
:1039F000BBF5967FFFF490AE8AE60000403F0208D8
:103A000040400208713E00089A9999999999D93FC6
:103A1000333333333333D33F9A9999999999C93FC3
:103A20009A9999999999B93F40BF0108800000205F
:103A30000000002054696D653A000000000000009D
:103A40000000E03F913E0008496E74653A000000B6
:103A500030B587B014216846FCF70EFC0D480024F1
:103A6000016841F00401016000680B4D00F00400A2
:103A70000590224608212846FDF729FC012108204F
:103A8000CDE90214CDE9000169462846FDF734FB73
:103A900007B030BD30380240000002402DE9F04749
:103AA000174C00260746C4F88C624FF00108C4F892
:103AB0008C820620FFF7E2FC01254FF4FA792F42B1
:103AC000C4F88C6208D04846FFF7E6FCC4F88C8244
:103AD0000120FFF7D3FC07E00120FFF7CFFC4846A9
:103AE000FFF7DAFCC4F88C824846FFF7D5FC680083
:103AF00010F0FF05E3D1C4F88C62BDE8F087000048
:103B00000000404270B5134A131893F8203093B167
:103B1000114B53F820308B421AD90F4B0C3B53F802
:103B20002030B1FBF3F102EB8003586950F82120FB
:103B30000020044608E011688847012070BD5D69D7
:103B40000E18401C45F826409042F8DB002070BD5E
:103B5000022070BD540000201044040830B5044613
:103B60000748084D002150F82400820005EB84002E
:103B7000406900F087F80120291981F8200030BD44
:103B8000F8430408540000202DE9F0411E4E04467D
:103B9000002530190F4690F8200010B931682046F2
:103BA00088474FF0FF326FB3184B53F82410B7FB20
:103BB000F1F0B7FBF1FC01FB1C7101B1401C134992
:103BC0000C3951F82410491E1CD406EB8406776981
:103BD00057F821C0BCF1000F04D0002585420FD159
:103BE000002206E06D1CF9E775698F18521C45F834
:103BF00027008242F8D353F824004843BDE8F081FF
:103C0000491EE5D51046F9E7540000200444040895
:103C100010B50C4B0C4C002253F82030114604EB2D
:103C2000800005E0446954F8214004B1521C491C4D
:103C30008B42F7D84FF47A704243B2FBF3F080B274
:103C400010BD0000F843040854000020002906D0ED
:103C5000034A02EB80029268891AFFF753BF70474C
:103C60005400002010B50446FFF78EFF411C05D01C
:103C7000034901EB84018968084410BD002010BD90
:103C80005400002002E000BF00F8011B521EFBD2CE
:103C9000704700002DE9F04186B014216846FCF71A
:103CA000EBFA2A480025016841F010010160016823
:103CB00001F010010591016841F004010160006804
:103CC000234F00F0040005902A4670213846FDF786
:103CD000FEFADFF880804FF4C046002231464046AD
:103CE000FDF7F5FA01243020CDE900046946384695
:103CF000CDE90245FDF700FA40208DE83100694624
:103D000038460395FDF7F8F9CDE900646946404669
:103D1000CDE90245FDF7F0F90F48C0F8B852C0F8F8
:103D2000B842C0F8B452C0F8B4420C48C0F8985237
:103D3000C0F89842C0F89452C0F89442C0F890522B
:103D4000C0F8904206B0BDE8F08100003038024073
:103D500000100240000802400000414200004242C0
:103D600070B5FFF797FF414C0125C4F898526420C5
:103D700004F52674FFF782FB00202060C820FFF7BF
:103D80007DFB25600021AE20FEF750FF0021084694
:103D9000FEF74CFF00211020FEF748FF00214020D5
:103DA000FEF744FF00218120FEF740FF0021CF20D5
:103DB000FEF73CFF0021A120FEF738FF0021C820BC
:103DC000FEF734FF0021A620FEF730FF0021A820D7
:103DD000FEF72CFF00213F20FEF728FF0021D32013
:103DE000FEF724FF00210846FEF720FF0021D52022
:103DF000FEF71CFF00218020FEF718FF0021D920CC
:103E0000FEF714FF0021F120FEF710FF0021DA2059
:103E1000FEF70CFF00211220FEF708FF0021DB2037
:103E2000FEF704FF00214020FEF700FF00212020C4
:103E3000FEF7FCFE00210220FEF7F8FE00218D2097
:103E4000FEF7F4FE00211420FEF7F0FE0021A4206E
:103E5000FEF7ECFE0021A620FEF7E8FE0021AF20D1
:103E6000FEF7E4FEBDE87040FEF7C1BE000042422E
:103E700010B5064C6078FFF711FE6078401CC0B2A8
:103E80006070082801D30020607010BD0000002081
:103E9000FF20FFF703BE0000012291020148FDF759
:103EA00016BA0000000C024000224FF48061014865
:103EB000FDF70DBA000C024030B58DB00024054668
:103EC0000794089409940A940B941C2168460C9456
:103ED000FCF7D2F916494FF0804001C1592031C199
:103EE00013480C60FDF700FE4FF48050079007A9BF
:103EF0000F48FDF727FE0E48FDF72EFF0B940BA988
:103F00000B480C94FDF7C8FD602000906808CDE9CF
:103F100001040022694606480494FDF7B5FE0448F2
:103F2000FDF78AFE00210248FDF732FF0DB030BDDB
:103F30008002002000210148FDF746BF80020020DA
:103F4000A210A000000120012009E0088321000147
:103F5000210AC62BA323495D632BA333CB6DE00A53
:103F60000634C5338C6DA64CED96C3448455A86EBB
:103F7000E655664D000BC423C20A2413A51384130F
:103F80002524410B0003031CC10B4B5E673D431C02
:103F90008424431C062D2314220CA4144304640C13
:103FA0004725061DE51C0A46E624072D0935A4030E
:103FB000A5036503E703A503870C660427152615EB
:103FC0000936672525152415E72D48362936093683
:103FD00068258E4E8B2DCA1CAA14EB1C4C25EB14A5
:103FE000AB0C4E2D6B1C6703EA0BC903AD242B14DD
:103FF0006903CF2CEF342D14AB03CF24EC0B8F24AB
:10400000F0246E148E144E140D14ED0B4E14102566
:10401000F014AF14D135D135D0258F1D3036513E37
:10402000B246B34E2C25504E904EAF56526F6E5E38
:10403000F176D176B16E2F564E464F3EAC25AC256B
:10404000C210E108C211C111A63A6111A000C0005E
:104050008001E633E10A453C2644095DA644A74CAD
:104060006002832B295D285DC96DE023E23C6B87EC
:104070002003A655C11BA31B43138002A102430BBF
:10408000262421034103E31B44240B5E031CA52CBF
:10409000E2130314A103E62C851CC51CE61C430C8B
:1040A0002725E61C640C8414851CA624A303630343
:1040B000C60BC60B891CEA248714281D0615261575
:1040C0000615A40CA40CE40CE30CA625251D6B46D8
:1040D0006C4649258C2D680C8914AA142C1D4C257E
:1040E000CB144E2DA803ED2C4B146C1CEA0B8D2425
:1040F0008D24EB134D1CCF2C102D2C0CF02CCC0B45
:104100004A038F1C4D14D0244A038C036E142D04D3
:10411000301D4C04D135CC14112E102E3036AE2D5E
:10412000914630466D2D6C2D6F4E8F562D4EF48777
:104130001177738FB06ED1664E4ED04E2E3ED14E5B
:104140008100E42120012001C109E000A219C2116F
:104150008001A52B421B8323095DE854085DCB75C4
:10416000C012211B2C7E0B7647556655612C486684
:10417000075EC33C0966C013C002C002621342134B
:104180002313C523430B2624462C452C610BA21375
:10419000041CE0024103251C6524451C4414E6244C
:1041A000030485140304E624851C651C6A3D220370
:1041B000A503A60B681CA91C05040404061DE51430
:1041C000071DC92D6825261DE40CC40CA82D271D2C
:1041D00069256B2D2704CE3D2C256D2D0B1D8E2DB5
:1041E000EB1C0C25AC24CD2C2B142B140B144803E6
:1041F00089030B1CEA0B2C140F2D4D142903ED130E
:104200004E24EC138E1CF02CCD0B2A036E14AE142E
:10421000CF148D0C4E258E254D15CE250F366C25D1
:10422000B1569156AD3DCD3DCC3D6A2DA7148B3D89
:104230002E56EE550E56D1668C356F4E2A25AC2D76
:10424000C00061094633E83B873BC52AC000A1098D
:104250002112A1126323411B095D42236123896D51
:10426000001BA64CE64C6B768B766334C43C8755BA
:10427000A013C013001C6A6EAC7644340C6E463C2E
:104280002413651B651B641BE202E202C102E20209
:10429000473467340203831321036203251C61033F
:1042A000C203240C6414E203030C81036203E50BD4
:1042B000A503E713681CEA2CA403E403440C440C94
:1042C0004404A50CA92D461D83046725630402043C
:1042D000A6142925AD35EA1C690C890CCE350F3E94
:1042E000CA14EB244E352F3D4F3D0C14AA034C1C31
:1042F0000B1C680348032B142B140C0CCC0B4E2402
:104300008B0BB0344D1C4E1C0E14ED0B4D0C6D047C
:10431000301DEE0CAC0CAE2D8D252F360E36ED3D3E
:104320002F4E737F116FED4567140D460D3E0E4EF7
:10433000AD45CE557587B266F2668D35AD3D060446
:1043400000010001A312241B4D658733EA4BA1092C
:104350006001442B6C6D8002E42BE012864C4123FB
:104360000E9FA86DAC86A85D874D674D684D200BEC
:10437000C63C642C600BA855A4340A664C76C9541C
:10438000A30AC40AC40AE40A41022102C30AC30AF6
:1043900041020834A623A2022413841322036624B4
:1043A000030C030C430C020C4314641C451422033D
:1043B000430344038603A6034403A403A4030404A1
:1043C0004404A50CE5146725C83546250415261DAB
:1043D000650C86144A2D4B2D0E460E3ECC356B25B2
:1043E0008F4EAD352D35C80BCA0B4D1CEB13690331
:1043F0006C24EA1BEE34A9032B1469034E1C090339
:104400000D1CAC132D1CAF2CF134723D3025501D0A
:104410007025ED0C4D1D4C1D6D1D0F368C2DD05E85
:104420004A358B45B0661277CD3D2E462E46CA24BE
:10443000AA24526652666A24E70B6D35891C48141B
:10444000A001E0016102200207346A444312832282
:104450008322000AA9544323A002E10A6002C0019A
:104460004C86EA75AC7E62348B6ECD76274582131E
:10447000C73C6113A1132324600BC744221B031BF9
:10448000830A430263022202A40A051BA40A220231
:10449000AD54882B6723A30AA3026102A102E102A3
:1044A000E41364146414031485240414620367245D
:1044B0006403A60B6603A60B89240714A9244614DB
:1044C000A614E61C02040936251D862DE835C41401
:1044D000C935AA3528256A2D0D3E8B2D860C291D40
:1044E0000D3EE91CEF4D6B2489030B14503D6D24E8
:1044F000A90B4B248B244F3DC9032C14EC130D1C2A
:10450000CC1BAF34EC136E240D146E1CEF1CAD0CE1
:10451000CD0CCD0C49042C1DAD254B25D477B05EB8
:10452000905E327770669066060C891CE70366031E
:10453000E502C913C91B0A1C4A1CE90B6603E813F0
:10454000E322A533E21207346001E0010C5DA00113
:10455000421AA322CB64E63BA423A423E53383239E
:104560006644AB6D6C7E2A66E85D4645884D8113D6
:10457000442CC21B452C0103A0022002830A4302E3
:104580002302061B840A630243020202E61A840A1B
:104590008512440A840A061B63022513451B030384
:1045A00043034203251C6624A30B4624C513840B36
:1045B000E713281C040365038503C50B471C461439
:1045C0008614071D882DC414E7352C5F86256625C3
:1045D000E5144825CB354D46AA2DCF560B3E2C3E33
:1045E0000C3EAC352C356A1C67032703CA0BEA1353
:1045F000880BAD34E9134A1C880389034D1CEC1366
:10460000AE2CEB132C140C14CF2C5135502D4B0425
:104610000E154B048E2D4C254C25EA1C536F0E466F
:104620004F56AE454C3DC70BAA2429140503C90BB0
:10463000680BC7024913A602CA130B1C2B1C4B2480
:10464000600AA00AA1122002810A8102200200024F
:10465000421A2001C322C21AE212831B25344002EF
:104660004A5D621BA644CD7E674D832C4324642C97
:10467000C21B2103A51B4413A3024302440A650A7B
:10468000E61A4302840A840264026402640A440A49
:104690002402450A8612C61A4402840AC40AE40A9D
:1046A000240B8513E202640B8513E61B030344030A
:1046B000081C4503E81B24034403E613A403871CDA
:1046C0006614071D850CA40C46258625CC4E293E74
:1046D0006B46EE566925CB358A2DCA2DCE4E8D46BA
:1046E0000C360D3EEA242C358B24E90B4B1C2B1C7D
:1046F0000A1C4B1C8C24E90B0904A9030B142B1472
:104700006C1C2B140A0C4C148E1CEF240A04CD14C0
:10471000AD0C4B04CB142C1D4C25CD3DED3D8C3503
:104720008D3D691C291C0814870387032A1C270355
:10473000280B280B6602C8022903AB130803AA1B27
:10474000A42BA11260014112A21A662BE83BE001E2
:10475000E000C009663B400A64238002C744C323CB
:1047600080024113821BC744CB65652C852CA6347F
:10477000C002E102661B42022302E301C3014402BC
:10478000C40AC40A6202C40A430264022402240264
:1047900004028612450A450AC6126402C50A0513B8
:1047A0008302050B250B861BA71B082C6613E4024E
:1047B000C81BC81B860B450365036403C50B881C17
:1047C00087148714EB3DC61426152615261D4B3E6F
:1047D0008D46CF56E814EC358A25CF4E8E46691D9E
:1047E0004D3EED3D0E466C35AA24AB242A14091427
:1047F000AC2C0A1409142A146A14C8032A0C0A0CD3
:104800000D25CC1CCC1C0D25A903EE1CAD1C8C1455
:104810004C0C0A04CC1CCB1C69140B256C3570564F
:1048200049140503E913A80BE913AC2C4B1C2F45C5
:10483000CA1B080BE80A290BC7026A0BC802C80288
:10484000E6338954A74300010533C41A620A0C6594
:104850002001621A519E4012A84CCB65A21323245A
:10486000C002AB65C423A8448F7E252CE31B452CD6
:10487000A31306240413C5128512E301E3014402C5
:10488000A30A0413A302E40A4202840A650A450A41
:10489000450AA3018612C71AC71A4402E612A502E6
:1048A0000613C50AE50A2613630263024713E502ED
:1048B0008402A91B870B870B2503281CC60BA503A5
:1048C000060C670C870CA60CE614471D4304271D35
:1048D0008A256A256A256604CC2DAB252C362C3614
:1048E000F04E2A1DC91C4C35CA242C35AA1C6A1C42
:1048F000E80BA80B090CA80387036A0C290CAB1C56
:104900008E2DEB144D25D03DED1CF23D90356C14F1
:10491000A903C9036A14AB1CB35E104E6C3DE70BD0
:10492000250309146703A80B46036B1C8703C913EF
:10493000280BA6026A1BAB23080B6A1B67022A1B03
:10494000242300010001E000E3198843E52220014F
:1049500080010112411A2F8E295DEA65C434A84DE9
:10496000400BE7448744907EC944C1020524A63425
:10497000862C420B0313E0010302C2018612E201FE
:1049800087230413851B820242024302020286121D
:10499000C71A05020502E401E71A24020302C50A48
:1049A00084028402261B84022613A502230203022A
:1049B0008502E602270B680B470305034503E80B56
:1049C000070CC503660CA60CA92D481DEA2D481D31
:1049D000281D8B25291D2D3EEC2DC704E70C29151C
:1049E000E80C8B252A25AC3D4F560A2D270C481480
:1049F000691CC70B4914E8032804C703AA1C690CE7
:104A0000890CEB144D258E2DB0352A04CD1C2E2D8E
:104A10002C0C8D1CE8034A142D35D46E6D3D2403F7
:104A20002603A8132603C4024A2466034603870309
:104A3000680BC602C602A602CB23A602C7126A2BC7
:104A4000210A400180008000C000A211631AA00169
:104A5000A0010112A222A53B8644E544085E453D23
:104A60002A66CA5DCC65CD6D4C5527346734210B61
:104A70008213A31B2313A2128312230A650A640262
:104A80006202A623041304134202A40A640AE30187
:104A9000450A250AC401E401860A2402E301A60AA4
:104AA0008402C60A271B271BA60A89236502E40184
:104AB0002402A60269130703C913A80B0914E80B03
:104AC0006914470C2504C714A50CA50CEA35281D4C
:104AD0000815AB2DAC2DC80CCC2DE80C8A1DAB25D0
:104AE0004A158B258B2D260C470CEA24AD3D470C2F
:104AF000691CC603280CE703680CA9148914280450
:104B00004C1DEB140C1D2D25ED1C2E25AC1CAD1CD5
:104B100030354C14E9034A141156870BC70BE402D5
:104B20002A2467134B2CC81B29248703A70B670370
:104B3000C91BA5022C2C691B070B08134923C81A93
:104B4000420A200121014000A000800060014001D4
:104B50002001C0014112432BC64C6013412445453E
:104B6000664DE53CCB658F7E062C40028102072C0A
:104B70008002A102441B0002620A630A020242028E
:104B8000C30A0413E40A451B261B22020302E301A5
:104B9000240AE8228712250A2502C301E301440200
:104BA00024022813E71265026602870A4A23E812E4
:104BB000E812C80A080B8A1B8813460387036A1C7D
:104BC0002714EA24C81C8A35A60CE614850444047C
:104BD00008156B252A1D2A1D6B25CC2DAF468A1D75
:104BE0008A1D09158B2D0A258C35AD3D8C35CD3DA3
:104BF000C50347146714A91C4B250A1D2704CA1CAA
:104C0000CA140B1DAA1CCC1C6B0CCD146B140A0C03
:104C10008D1C0F2D0D2D8B244703CC3C6A2C2503B6
:104C2000CC3C871B2613671B0503C813870B6C2C12
:104C3000EA236913691BC7020B2CCA236923926DEF
:104C40002001641A462A641940000109200140012C
:104C50000001631AC001C1128223C53C800BCB76D0
:104C60000866C85D85346A55E944200220022102A5
:104C700041020002C20A862BA733630AC51A640ADE
:104C8000C40AA30204130513C40AE61AC20165127A
:104C90008201661A671A250A66122502E712C60AF9
:104CA000481B481B45024502E4016702A812260280
:104CB0000502460287024913280B8813870BE81365
:104CC000691C270CE91CE81CA7144925E7140815E2
:104CD000870CCD35EA144B25C91467048B25AB2509
:104CE0006A1DCB2DA8146B35A503A81C0A2DB05E38
:104CF000A81C4614050C8714870CC914C91C07048A
:104D0000EB1C690CCB24090CCD1CCD1CC9030A0477
:104D10006D148D1CCD24114EED3C8713660BA71B23
:104D20002D4D0513A82BE512261344028813891371
:104D3000AA236E3C2D34A602C7024C348D44E301F5
:104D4000E422C0018209CC63C0008000611103220B
:104D5000C111C1018312E212000BC63C2003464D73
:104D6000AC7EC9650A66EA65C73CE52B4002C31202
:104D7000E001000266232102A40A230286126512C2
:104D8000E512C40A0513E5124723E201C201E3015B
:104D9000E40183012612A71A661286122823440210
:104DA000640267138923850245020502E5016C2B25
:104DB000A912470247024602080B480B8913260333
:104DC000A7036503070CA814670CC814091DE91490
:104DD000E914EA1CCA14CA1489046C252B152A1577
:104DE000491D6A256B2DAD3D2B2DE603A91C0A2D0F
:104DF0002514C824CB3DE71C860C4A25A50369145D
:104E00008A1C4A144A1C4B1CC903AD14AD1CA903CF
:104E1000EB032C0CAC1C4A140603260BA71BA71B88
:104E2000040B8723093C4B44C60A081345020502BC
:104E300067024B23E90AEC23290B6D34280B03028C
:104E4000A21A6001E0000001C000A0008111400131
:104E5000A109E52AC7330313294DE323A113011C3C
:104E6000675563340645C95D0745821B4634852373
:104E7000A733A0012202061BC2010402A301250AD6
:104E8000640AE512261B2202840AE201240AC301F5
:104E90002512C401A301250A450A8612650AC61215
:104EA000A5024713271389234502870AE501060255
:104EB00027022702A90AC90A090B8702E802E702AA
:104EC00047032A1CE80BCA242B2D470C2A252B2527
:104ED000A914890C2804E703690C48042704E91481
:104EE000CC2DCB2D6B2DEA240B2D6F568B3DCF6631
:104EF000AE5E240CAA35C71CC81406042704CB1CBC
:104F00004A14C80BA80B0A140B0C2B0C2B0CEA032D
:104F1000EB03AE1C0E2DA803C91BE60AC92BC40A5D
:104F20000D55C82BAC4C8D4C4923AB2B09134602B5
:104F30002702AD2BA802D044EC23EB23891B0302EC
:104F400061124001252BA0014001A009800101123E
:104F5000A001220A483CE523E002C21BC11B422CEF
:104F6000053D46456755EE86AE86453444248A5550
:104F7000A00AE73BE1018612260AE509461204026F
:104F8000C1014302640A640AE201650A450AC722B4
:104F90006612E401E5096612E401450AE4016502CE
:104FA0004402E712281B8A2BC81226020602C501FA
:104FB000C601A90AC912880A0A13C90A8802E90A9D
:104FC0000803690BA90BE9134D3DE70B070C0A25F4
:104FD000A91C8C352704A914A503C6038814E91C51
:104FE0002A1DA80C0A1DCD3D6F566E562C4EC61CB0
:104FF0000B4EEC45E50390568D2D0704690CCB1C38
:10500000090C8803C90B8903CA032B140F2D6D1CCF
:1050100068034C148D240703E70A8502692B692B6A
:10502000C6126823C50A0713691B8602C80AA80AA4
:1050300009134A1BE702CA23CE3CA6020713220229
:10504000400A2844810A073C410A40012002452BBE
:105050004112242B4734E423A31BC644E223022C31
:10506000C75D800B464DCA650F8F6434A94DA52CD2
:10507000E10AA001A512C301E501C509E409C301C4
:10508000440A23022302C201650AC61AE401A71AD0
:10509000C401050AE401A71A660AA712650AE3011A
:1050A0004502C812870A4602A81226020602480ACA
:1050B0002702270207020702A90A890A890A890A20
:1050C00087024A130803CA1BC913C80B2914E70334
:1050D0004814E6036814480C0A258814C924671488
:1050E0000A252A25B15E8C35C824C724893DAA3DEE
:1050F0008514E81C4F4E8914AA14690C6A0C090423
:105100006A142A0CE90BEA0BC9032B140A0C8C1C39
:10511000CA03A9030B1407032402C70A0823450A7C
:10512000A712491B85028502EC23080BE80A8602B8
:10513000E80A891BA5020A24270B481363020934D5
:105140004102A20AA523A5230A55CE75400280027A
:105150002002E112C4236634E74C8002C233C12B23
:1051600005552555633C8C862E97222CE634083D48
:10517000C1024102A101A2010402C301C201C20194
:105180000302A61A072303020402450A8201A301AF
:1051900026128301040AE822C71AA612E301240298
:1051A00065026602250226020602270AC6012702B8
:1051B000A912480248024802890A680268022702C6
:1051C000A90AE90A090BE8024402880B8703A80B25
:1051D000A703090C6A14080C49144814C6030F4E9F
:1051E000A91CA91CAD3DED4D8B3D2935082D0C4E5C
:1051F0008614660C4604470CC603490C490CCC1CAB
:1052000008046A0CC8038B14A803E90B0A0C2A14BF
:10521000C9032A148B2464024302E6124723640A5A
:10522000692B6E44CA23E70A4913080B6602081368
:105230002913A6020A24070BA5024402ED4C2513EC
:10524000E0014002020B2313A00222132634673C24
:10525000011BC00AE002821B695D4865C654023C1E
:1052600068652A7E844CA875E86DA85D4003862495
:105270004734C30AA40A44022302A51AC201A201A8
:10528000450A2402E71A450A0823A301460A8301B6
:10529000C401050A050AC3018A33E71A4402082338
:1052A000660A25024602A812E601680A2702891248
:1052B000680A280248024802890A480227020702AF
:1052C000890ACA0A68026702C70207034803EA1389
:1052D0008903EA0B4703C8032A14E80B0C354C3545
:1052E000EB2C4C35671CE92C6A3D661C2935092DD1
:1052F0002A2D05046B2D8814680C490CC703CC1C9F
:10530000EC1CAA14EB1CEC244A144A14A803090C44
:10531000A80366036B1C4603A4022613061BAD4CB0
:10532000A7126602080B891B6E34CC234913080BA5
:10533000080B6913C91B06032B2CE6028B44A2023F
:10534000431BA102220B4313431B26342213673C49
:105350008744E84C452CC21BC002E123C86DE133F1
:1053600080122D8E434C6A96AEAFC765495EC52C40
:105370006313C623A623E82B630A4001A301E401BB
:10538000250A250A2502A71205026201C401E501CA
:105390004612A71A2512C301CB3B8612AA33C712A5
:1053A000A7122602670A06020602C601C601891272
:1053B000890A690A28020702690A48020702E70106
:1053C000290269024802A802CC23CB1B690B8A0B75
:1053D000690369038A036803670366032C35EA2CB3
:1053E000E713C6132A352E56AB458B3DE403C503A0
:1053F000C91C881CC91C06040604490C8A146A0CC2
:105400008A0CCA142804AB14EC24E903C803290C41
:10541000C803CC248B24C813C81B2613461B0E5D5F
:105420006E441155CB2B0C2CE902CC23EC2BA6029D
:10543000A602891B2B2C4813915D2713CF656102AF
:105440002002231B841B0A55431BC212A94C031BB9
:10545000E0014323210B00038002A01BC023A86DA1
:10546000CB8520124FBFC785F2D7A6658234842C26
:1054700020022002A102651BA412C201C301C401C3
:10548000250A0502C401E401660A460A260A6712D3
:10549000E501260A250A8301CB4308232C4408236F
:1054A000E91A470A6712270AE601E7010702490AD3
:1054B0008912AA12690A2802690A28020702080248
:1054C000E801080268026702E80A8B1BE802A702EB
:1054D0004A0B6B0BC802690B2703EC34EF4DA50B8D
:1054E000850B071C6724C82C2D56292D050C671425
:1054F000470C68146C35681407042804690C4904C7
:105500008A0CAA0CAA0C8A14CB1C2D2D8B14AC244B
:10551000090C0914C90BA80B6713E50AE92BCA2B60
:105520004A23AB236A1B090B2E2C8F3CE70A471337
:105530000A2CE6020A2CE602CA23881BCF6DC94456
:105540002112042B0102A001A001A0016001E109C8
:10555000E4222001E212431B0013443C0755696D0D
:10556000B3C7E774A14B2996288E035DC023242C72
:10557000430BA61B240BC30A872B840AE301040AEE
:10558000250A250AE401660A260AC401C401871A0D
:10559000050AC401671A8301050AC7226A33050296
:1055A000470AE60107020702E6014812280A080234
:1055B00008020802490A4902490A08024902490A3E
:1055C000490ACB1A6802A80A670287024A13C8026E
:1055D0002A0BE9022A034903A9134A24CA34B06EEC
:1055E000A51B672CE413A724861CCB3DAB35670CA9
:1055F000E603C603681C2814E6038A148A0C8A0C86
:105600006904AA0C49042904A7030904E90B470308
:105610000A0C4B1C4B24680B64024C34E70AC70A83
:105620006A23D04C090BC8020E2C4E2C4913881B40
:10563000881B4713891B891B280BEA2B2F76263CD6
:10564000C109800142122001600180014212C101A2
:105650008001C001810A4844021B800AE43BA23B4E
:10566000AEA648854364057D0BAFCFBF4FA7853CF1
:1056700043134834C00162022102E41AC61A450AE3
:10568000250A04022502E401660AC401092B050269
:105690002612260AC509840163018301E40105027B
:1056A000270A891289128501891A2812E701E70160
:1056B0008A12E7010802490A490A29026A0A490AC4
:1056C000290248026802880AC80A6702E90A2A13FE
:1056D0008802A9024B0B08032703081CA92C0E5EA5
:1056E0006F76538F66240835C7240C468A35670CBD
:1056F00067144814E70BCA24C703C703CB142C1D37
:1057000048044804280408040904A8034703A8031C
:1057100068030B1CEB1B6D34080B8A1BE812660236
:105720004A1B4A1B0D2CE9024B0B2E2C891B4713DD
:10573000A9232713881B280BEF4C47132F768323AD
:10574000E10940018312620A20024002031B4C65FA
:10575000473CA5230213E52BE854600AA01A044C29
:10576000A2438985A14BC574A04BE88DE97D4444D3
:10577000221340022102830A6202630A640AE301DF
:10578000450A450A650AE301E81A66120502260A77
:10579000260AE6092712840184018401260AE6010B
:1057A0000702280A270AC701E701A601080AC7015C
:1057B0000802E801490A2902080229022902490AC5
:1057C0006A0A28022B1B6802C80A09130A132F341D
:1057D0002B138D1B4B13C80228032503850B061CB6
:1057E000AC556E6E31876A45C724CB450C460825FB
:1057F000E50B4714E603E7030804E8038A0CCB141F
:10580000690CEA14480C490C490C2D2D87034703F9
:105810008803690BAA13AB1B6A1B4A1B2E3C470269
:105820004B1BCD236A13D03CAC1B2D2CEB2B26132A
:10583000A9232B34E60A280B070B2713EE6D200251
:10584000E0016001820A441B0213E10A4213663C34
:10585000462C6A4DC002C323621BC433E0012133CE
:10586000C66427750FBF2785A88DF2DFCCA66C8E86
:10587000E0120213C62BC833830AC412061B44026B
:1058800085128512C301E71A0402861225028712C7
:10589000E609C501060AA501A5016401A501850166
:1058A000E701E701070AE7010C2BE809C701E80156
:1058B000E801290A0802080229026A0A29028B1251
:1058C0002902AA124802C912C912A90A6802EA0AE0
:1058D000CB0A6D1B6C1B2A0B490BE6022503850BBB
:1058E000C834A313293D4A45E834CB4D08356A3DF9
:1058F000871CA81CE603C703290C8A0C4804CA1499
:10590000CA14C914890C8914CA1CAB1C660367032A
:1059100006034703480B6A13E90A4A1B70444B23EA
:105920004B1B0D2CCC23B03CED234A13AA23A5021C
:105930002B346C3C070BAA23CB2BE612694484233F
:10594000084C0002C212C52BA423E002C00221139E
:10595000E4232524E844C002200BA00A8654E02258
:10596000202BA65C8A852885E67CA8954DBF877D7F
:105970008002A00240026523872B43026402440296
:105980000302E61AC612A6126101C71AC301050A6C
:10599000E501C501A601A501A6018501A601C60173
:1059A000AA1A080AA601C70108128601E7014912CE
:1059B0000802290A08026A0A08024A0A6A0A8B12BD
:1059C0006A0A4902AA0A28024802890AAA0A28027F
:1059D0006A028A020B130A0BA702E702A91B660BD5
:1059E000061CE5132303A513E523B49F107F0C5E6B
:1059F000C82CC824CA24AA1C490C2904490C4804F0
:105A0000A914A9146B2D8C35270CA91C6914C70384
:105A100025036703480B080387022E346C232B1BD6
:105A20006702AC23CC1B6A0B4E2CAF3C891B89232D
:105A300028132813481386020813E712A30A231B0E
:105A4000A00A4002A002621B2424E31B200BA00238
:105A500020036103894DAA554745485564442F9F4B
:105A6000E01AC6640012CB952885F2DFCFD7256DEA
:105A7000475DE323A00223132313451BA402C50A99
:105A800047238512A512E301650A86120502E50186
:105A9000060A270AC601A601850186016501A7013C
:105AA000E701C701C701280AE809C701E801E801C1
:105AB000C801AB1A6A0A4A0A6A0A29020902AB1229
:105AC0006A0AAB1229026A0A4902690228026A02BA
:105AD000CB0A690228026802A8028702080BA91BE8
